:020000040800F2
:1000000000040020BD020008BF020008BF02000873
:10001000BF020008BF020008BF020008BF020008BC
:10002000BF020008BF020008BF02000825BD00088B
:10003000BF020008BF020008BF020008BF0200089C
:10004000BF020008BF020008BF020008BF0200088C
:10005000BF020008BF020008BF020008BF0200087C
:10006000BF020008BF020008BF0200084DD200080E
:1000700061D2000875D2000889D200089DD200081C
:10008000B1D20008C5D20008BF020008BF020008B4
:10009000BF020008BF020008BF020008BF0200083C
:1000A000EFCA0008F3CA0008F7CA0008FBCA000834
:1000B00095DA0008C5D60008BF0200088DD40008F4
:1000C00099D50008BF020008BF020008BF0200085F
:1000D000BF020008BF020008BF020008BF020008FC
:1000E000BF020008BF020008BF020008BF020008EC
:1000F00079D80008BF020008BF020008BF0200084C
:10010000BF020008BF020008BF020008BF020008CB
:10011000BF020008BF02000851D8000865D80008D7
:10012000D9D20008EDD2000801D3000815D3000889
:1001300029D30008BF020008BF020008BF02000860
:10014000BF020008BF020008BF020008BF0200088B
:10015000BF020008BF020008BF020008BF0200087B
:10016000BF020008BF020008BF020008E9DA000869
:10017000BF020008BF020008BF020008BF0200085B
:10018000BF020008BF020008BF020008BF0200084B
:10019000BF020008BF020008BF020008BF0200083B
:1001A00072B6374880F30888364880F309883648A5
:1001B0003649086040F20000CCF200004EF634717F
:1001C000CEF200010860BFF34F8FBFF36F8F40F294
:1001D0000000C0F2F0004EF68851CEF20001086037
:1001E000BFF34F8FBFF36F8F4FF00000E1EE100AA7
:1001F0004EF63C71CEF200010860062080F31488B0
:10020000BFF36F8F0BF0C8F90AF066FF4FF055305F
:100210001F491B4A91423CBF41F8040BFAE71D49B4
:10022000184A91423CBF41F8040BFAE71A491B4AAD
:100230001B4B9A423EBF51F8040B42F8040BF8E7FF
:1002400000201849184A91423CBF41F8040BFAE7D4
:100250000BF0A6F90BF0A1F9144C154DAC4203DAE2
:1002600054F8041B8847F9E706F074FB114C124D53
:10027000AC4203DA54F8041B8847F9E70BF08EB957
:1002800000040020000C00200000000808ED00E041
:10029000000000200004002068FC0008000C002082
:1002A000E4100020E8100020C41F0020A001000876
:1002B000A0010008A0010008A001000870E700F0FC
:1002C00000F8FEE72DE9F04F2DED108AC1F80CD0B3
:1002D000C3689D46BDEC108ABDE8F08F002383F310
:1002E00011882846A04700200BF01AFCFEE70BF00F
:1002F00073FB00DFFEE70000F8B52DED028B57EC35
:10030000106B55EC114B00F0A9F91C4BB0EE408A74
:10031000F0EE608A93F90030013314D022462B4668
:100320002046294602F08EFA68B932463B463046EE
:10033000394602F087FA30B92046294600220023C8
:1003400002F04EFA30B9B0EE480AF0EE680ABDECA1
:10035000028BF8BD02F0AEFC0022002321210160D7
:100360001046194602F0FEF841EC180BB0EE480AB0
:10037000F0EE680ABDEC028BF8BD00BF000C002057
:10038000F8B52DED028B57EC106B55EC114B00F0CE
:100390009BFA614BB0EE408AF0EE608A93F9003030
:1003A00001332AD022462B462046294602F04AFA3B
:1003B00018BB32463B463046394602F043FA002825
:1003C00044D1002200233046394602F009FAD8B160
:1003D000002200232046294602F002FA00283DD1DF
:1003E00045EC104B01F0C0FB38B1204629460022F5
:1003F000002302F0FFF900285BD1B0EE480AF0EECE
:10040000680ABDEC028BF8BDB0EE480AF0EE680A4F
:1004100001F0AAFB58B30022002351EC180B02F0A4
:10042000DFF90028E9D047EC106B01F09DFB0028B4
:10043000E3D045EC104B01F097FB0028DDD002F033
:1004400039FC222303609FED2C8BD6E720462946FA
:100450000022002302F0C4F90028CED09FED288BA3
:10046000B0EE480AF0EE680ABDEC028BF8BD47EC2E
:10047000106B01F079FB0028CDD045EC104B01F05A
:1004800073FB0028C7D053EC182B18EE100A19463E
:1004900002F0D8F918BB02F00DFC22230360002201
:1004A00000233046394602F0A5F948B99FED168B76
:1004B000A3E702F0FFFB212303609FED158B9CE770
:1004C00045EC104B01F060FB22462B4651EC100B23
:1004D00002F086F90028E9D19FED0D8B8DE702F03F
:1004E000E9FB00220023212101601046194602F099
:1004F00039F841EC180B80E7000000000000000014
:10050000000000000000F03F000000000000F07F4D
:10051000000000000000F0FF000C002008B52DEDE9
:10052000048BF0EE408AB0EE608A01F005F8474B8C
:1005300093F900300133B0EE409A1FD0B4EE488AF0
:10054000F1EE10FA1AD6F4EE688AF1EE10FA59D6E6
:10055000DFED3F9AF4EE698AF1EE10FA13D1B4EEB2
:10056000698AF1EE10FA29D0B0EE480A01F036FCA3
:1005700020B1B4EEE98AF1EE10FA4DD4B0EE490A9A
:10058000BDEC048B08BD01F029FCF0B1B5EE409A3A
:10059000F1EE10FAF2D1B0EE680A01F01FFC00286B
:1005A000ECD0B0EE480A01F019FC0028E6D002F0C9
:1005B00081FB222303609FED269ADFE7B7EE009AC6
:1005C000B0EE490ABDEC048B08BDB0EE680A01F03C
:1005D00005FC0028DAD0B0EE480A01F0FFFB002845
:1005E000D4D0B4EE499AF1EE10FA28D602F062FBAC
:1005F000F5EEC08A2223F1EE10FA036013D49FEDCA
:10060000159ABBE7B5EE408AF1EE10FAF7EE007AE4
:1006100008BFB0EE679AB1E702F04CFB21230360FC
:100620009FED0D9AAAE7B0EE480A01F0E7FBB4EEA1
:10063000480AF1EE10FAE2D09FED079A9EE702F029
:1006400039FB212389EEA99A036097E7000C00206B
:10065000000000000000807F000080FF53EC112BA1
:100660002DE9F04723F0004858EA020651EC100B40
:1006700033D08E4F21F00049B9450E462DDC57424C
:100680001743DFF82CC248EAD777674511EE10EA26
:1006900023D8C1451C4611EE105A10EE10AA10EED8
:1006A000103A01F0004706DCC0F2B5807045C0F09A
:1006B000B28000F0E4807E4A3240C2B9B9F1000F46
:1006C00040F0C680BAF1000F52467A4813DD52005E
:1006D000002A00F1FF30FADC0DE001F019FE0246BD
:1006E0000B4601F03FFF41EC100BBDE8F0874FEAED
:1006F0002950A0F2FF306E4A22407AB9B8F1000FBB
:1007000040F09980BEF1000F7246DFF8A8C109DD04
:100710005200002A0CF1FF3CFADC03E04FEA285CAF
:10072000ACF2FF3C644A904267DBC6F3130242F42A
:10073000801261498C4551DBC4F3130646F48016E0
:10074000A0EB0C0007E051EA04033FD0E20F630086
:1007500002EB41020138911B5C1B58B1AB4238BF20
:1007600001F1FF3100294FEAD37EECDA0EEB4202B1
:100770005B00EFE7AB4238BF01F1FF310029A4BFB6
:1007800023460A4652EA030120D04C48824208DC44
:10079000D90F01EB420282420CF1FF3C4FEA4303C6
:1007A000F6DD45498C455FDAA1EB0C0114296DDCBF
:1007B0000CF21E40CB4002FA00F042FA01F1034372
:1007C0000F433946184641EC100B8EE73C4BFF0FA8
:1007D00003EBC70797ED000BBDE8F087A1EB0C0119
:1007E0001F2921DC0CF21E4608FA01F82EFA06F643
:1007F0000EFA01F546EA0806A2E7131A1F2B0DDCD4
:1008000000F21E4209FA03F92AFA02F20AFA03F385
:1008100042EA09028DE741EC100B66E7294A121AF9
:100820000AFA02F2002384E7264EA6EB0C060EFA23
:1008300006F6002584E74FEAC822002ADFF878C0D0
:100840007FF770AF5200002A0CF1FF3CFADC69E739
:100850004FEAC922002A18487FF74DAF5200002AFC
:1008600000F1FF30FADC46E7A2F5801217430CF2E4
:10087000FF3C47EA0C51184641EC100B35E7104B92
:10088000FF0F03EBC70393ED000B2EE71F2906DCD8
:100890000CF21E4C02FA0CF2CB40134391E7094BC9
:1008A000A3EB0C0342FA03F38BE700BFFFFFEF7FDC
:1008B0000000F07FEDFBFFFF02FCFFFFFFFF0F00DA
:1008C000C8E10008E2FBFFFF2DE9F04F51EC110BEE
:1008D00021F0004555EA000393B03DD059EC108B50
:1008E000694B29F000449C424E4610EE10AA2CDCC5
:1008F0000F4611EE10CA36D09D4226DC624B9D4257
:1009000020D0002ECDE9000138DB4FF0000BBCF108
:10091000000F4ED15C4B9D4200F094805B4B9D429A
:1009200000F0A180B7F1804F00F09E84584B9F42A9
:100930003FD1002E3DDB49EC108B13B0BDE8F04FEA
:1009400000F02EBDBCF1000FDBD004F1404404F5F3
:10095000801454EA0A030BD14C49002041EC100BDF
:1009600013B0BDE8F08FB8F1000F01D1A542C5DD8D
:10097000484813B0BDE8F04F01F0FEB8464B9D4229
:1009800077DCA3F154739D420EDD2B15A3F2FF33E8
:10099000142B40F37184C3F134032CFA03F202FAEE
:1009A00003F3634500F0B7844FF0000BBCF1000F78
:1009B000B4D049EC108B01F0CDF851EC100BBAF12A
:1009C000000F22D124B1314B26F040429A421CD173
:1009D000002F05DA02460B4600202C4901F0C2FD2B
:1009E000002EBBDA04F1404404F5801454EA0B03F2
:1009F00040F0648402460B461046194601F0D0FAD6
:100A000002460B4601F0AEFDA8E7F30F03F1FF3AF3
:100A10005BEA0A0330D0214B9D4243DD03F10473AE
:100A20009D4240F3AF831E4B9C4240F33B83002F1B
:100A300040F33B8312A3D3E900231046194601F08B
:100A400067FC8BE704F1404303F5801353EA0A0384
:100A500082D0134B9C4240F35383002FC0F2258376
:100A6000DDE900017AE7002FC0F2F68340464946EF
:100A700074E74FF0020B4AE742464B46BCE700BF23
:100A80009C7500883CE4377E0000F07F0000F03F5A
:100A90000000E03FF0FB0008FFFF3F430000E041A3
:100AA000FFFFEF3FD24B3340002B40F0D3830022B7
:100AB000D04B01F02DFC6FF034060C462315CE4AC6
:100AC000C4F31304A3F2FF3344F07F559E199442FC
:100AD0000D9645F4401540F3B083C84B9C4240F35B
:100AE000F6839FEDAD7B8DED087B8DED107B9FED4B
:100AF000AC7B8DED067B01360D96A5F580154FF08C
:100B00000008DDE906232946064601F049FADDE939
:100B10000623CDE90A013046294601F043FA024690
:100B20000B460020B64901F01DFD03460C46CDE9F9
:100B30000E3402460B46DDE90A0101F0E9FB6B10B9
:100B400043F0005303F500230A462F46014603EB0A
:100B500008050023CDE902120293DDE90289002491
:100B6000CDE904122B4622464046494601F0D0FB0F
:100B700002460B46DDE90A0101F012FADDE906231F
:100B8000CDE90A012046294601F00AFA02460B4641
:100B90003046394601F004FA42464B4601F0B8FBB4
:100BA00002460B46DDE90A0101F0FAF9DDE90E2300
:100BB00001F0AEFBDDE90445CDE9060122462B46F6
:100BC0002046294601F0A4FB77A3D3E9002304467D
:100BD0000D4601F09DFB76A3D3E9002301F0E2F975
:100BE00022462B4601F094FB73A3D3E9002301F0C6
:100BF000D9F922462B4601F08BFB71A3D3E90023E0
:100C000001F0D0F922462B4601F082FB6EA3D3E916
:100C1000002301F0C7F922462B4601F079FB6CA3B3
:100C2000D3E9002301F0BEF9224606460F462B46C3
:100C30002046294601F06CFB02460B4630463946F9
:100C400001F066FB424604460D464B46DDE90401D1
:100C500001F0A8F9DDE9062301F05AFB22462B46F4
:100C600001F0A0F9424606460F464B46404649462B
:100C700001F04EFB0022634BCDE90A0101F092F92D
:100C800032463B4601F08EF902980D460446224654
:100C90002B464046494601F03BFB002280468946F0
:100CA000584B2046294601F07BF9DDE90A2301F083
:100CB00077F902460B463046394601F071F9DDE915
:100CC000042301F025FB224606460F462B46DDE9AC
:100CD000060101F01DFB02460B463046394601F085
:100CE00061F906460F4602460B464046494601F06A
:100CF00059F9029838A3D3E9002304460D4601F0C0
:100D000007FB4246CDE904014B462046294601F047
:100D100047F902460B463046394601F041F930A307
:100D2000D3E9002301F0F4FA2FA3D3E90023064608
:100D30000F462046294601F0EBFA02460B463046A4
:100D4000394601F02FF9DDE9102301F02BF90446B3
:100D50000D980D4601F072FA224606460F462B46C4
:100D6000DDE9040101F01EF9DDE9082301F01AF9BB
:100D700032463B4601F016F9029832463B46804621
:100D8000894601F00DF9DDE9082301F009F9DDE9F3
:100D9000042339E0AFF300800000000000000000F1
:100DA000000000000000F03FEF4E454A287ECA3F99
:100DB00065DBC9934A86CD3F01411DA96074D13FCF
:100DC0004D268F515555D53FFFAB6FDBB66DDB3FE1
:100DD000033333333333E33F000000E009C7EE3F12
:100DE000FD033ADC09C7EE3FF5015B14E02F3EBE80
:100DF0000000F07F000040438E98030079B60B009E
:100E00000000F03F0000084001F0CAF80B4602461F
:100E10002946204601F0C4F80BF1FF3353EA0A03D8
:100E2000CDE9020140F067819FEDB97B8DED047B38
:100E3000DDE9002300261046194632461F4601F020
:100E4000AFF842464B4601F063FADDE900238246E3
:100E50008B46DDE9020101F05BFA02460B46504683
:100E6000594601F09FF832468B4682463B46404643
:100E70004946CDE900AB01F04BFA0B4602468046ED
:100E800089465046594601F08DF8B94B99420446BF
:100E90000D468B4640F30C8101F13F4303F5E0031F
:100EA000034340F0FD819CA3D3E90023DDE9000169
:100EB00001F078F8424606460F464B462046294642
:100EC00001F06EF802460B463046394601F0B0FCA0
:100ED000002840F0E581CBF30A534FF48012A3F2CF
:100EE000FE3342FA03F35B44C3F30A52A14DA2F26C
:100EF000FF321541C3F3130423EA05010020C2F1B8
:100F0000140A44F48014BBF1000F02460B4644FA65
:100F10000AFA40464946B8BFCAF1000A01F040F853
:100F2000804689464246DDE900014B4601F03AF829
:100F30004FEA0A5B0D46002479A3D3E9002320463B
:100F4000294601F0E5F9424606460F464B46204643
:100F5000294601F025F802460B46DDE9000101F0C3
:100F60001FF871A3D3E9002301F0D2F970A3D3E9EC
:100F70000023804689462046294601F0C9F90246E9
:100F80000B464046494601F00DF880468946024628
:100F90000B463046394601F005F832463B460446DA
:100FA0000D4600F0FDFF02460B464046494600F064
:100FB000F7FF2246804689462B462046294601F007
:100FC000A7F95DA3D3E9002306460F4601F0A0F977
:100FD0005BA3D3E9002300F0E3FF32463B4601F078
:100FE00097F959A3D3E9002300F0DCFF32463B46D2
:100FF00001F08EF956A3D3E9002300F0D1FF324669
:101000003B4601F085F954A3D3E9002300F0CAFF61
:1010100032463B4601F07CF902460B462046294603
:1010200000F0BEFF06460F4602460B462046294604
:1010300001F06EF90022CDE900014FF08043304607
:10104000394600F0ADFF02460B46DDE9000101F034
:1010500089FA424606460F464B462046294601F08D
:1010600057F942464B4600F09DFF02460B4630467C
:10107000394600F095FF22462B4600F091FF0246CC
:101080000B4600203C4900F08BFF8B44BBF5801FD2
:1010900002460B46C0F237815946DDE9042301F0D0
:1010A00037F95BE4002FFFF6C5AC0020002155E4C2
:1010B000DFF8CCC021F00043634540F3EB802F4BB9
:1010C0000B4403430AD142464B4600F069FFDDE979
:1010D000002301F0A3FB00283FF4FDAEDDE904018D
:1010E0001FA3D3E9002301F013F91DA3D3E90023C3
:1010F00001F00EF932E49FED1C7B8DED047B97E649
:10110000002FD2DADDE90034184604F1004125E46D
:10111000000000000000F0BFFE822B654715973CE1
:1011200000000000432EE63FEF39FAFE422EE63F74
:10113000396CA80C615C20BED0A4BE726937663ED3
:10114000F16BD2C541BDBB3E2CDE25AF6A56113FC7
:1011500093BDBE166CC1663F3E5555555555C53FAE
:1011600059F3F8C21F6EA501000000000000F03F17
:10117000FFFF8F40FFFF0F000000F03F00346F3F84
:10118000FFCB9040824B9C428CDD824B9C423FF7D0
:101190004EAC00227F4B00F003FF69A3D3E900238C
:1011A00004460D4601F0B4F867A3D3E900230646D0
:1011B0000F462046294601F0ABF8002280468946BA
:1011C000754B2046294601F0A3F802460B4660A164
:1011D000D1E9000100F0E4FE22462B4601F098F828
:1011E00002460B4600206D4900F0DAFE2246CDE9AA
:1011F00002012B462046294601F08AF802460B469A
:10120000DDE9020101F084F853A3D3E9002301F0E2
:101210007FF802460B464046494600F0C1FE0246B2
:101220000B4604460D463046394600F0BBFE002012
:101230008046894632463B46E6E59FED497B8DED8B
:10124000087B8DED107B9FED487B4FF000088DED06
:10125000067B56E4002631E442464B4600204D49C9
:1012600001F080F9FFF77ABB42464B4640464946BB
:1012700001F04EF8FFF772BBBCF1000F36D1C3F19D
:10128000140345FA03F202FA03F3AB424DD0E346EE
:10129000FFF744BB414A93424DDCB346B2464AE6AF
:1012A000DDE9040132A3D3E9002301F031F830A3D2
:1012B000D3E9002301F02CF8FFF750BBBBF1010F7D
:1012C0007FF44CAB01F100431946FFF747BB9FED9C
:1012D0002A7B8DED087B9FED2A7B8DED107B9FEDAA
:1012E0002A7B4FF480288DED067B0AE449EC108BB5
:1012F00000F030FC51EC100BBAF1000F7FF4BCABE6
:10130000D346FFF75FBB504643EC102B00F0CCFCFC
:1013100051EC100BC1E602F00102C2F1020BBCF16C
:10132000000F3FF4FBAAFFF744BB02F00102C2F139
:10133000020BFFF7F3BA1B15CFE500BFAFF3008038
:10134000000000604715F73F44DF5DF80BAE543EE8
:10135000555555555555D53FFE822B654715F73FD9
:101360000000000000000000000000000000F03F4E
:101370009C7500883CE4377E0000004003B8E23FE3
:1013800006D0CF43EBFD4C3E000000000000F83FCC
:10139000FEFFEF3F0000F03F0000D03F0000E03FC5
:1013A0002DE9F041634955EC104BA94300F09F80B3
:1013B000002D2B4610EE102A52DD5FEA255E00F06C
:1013C000B180C3F31303AEF2FF3E43F48013D10F99
:1013D0001EF0010F01EB43034FEA420403D0E40F78
:1013E00004EB430394004FF0000C4FEA6E0E664688
:1013F00016254FF40012B118994202DC5B1A8E18C0
:1014000094445B00013D03EBD4734FEA52024FEA70
:101410004404F0D12F4620204FF0004209E041D093
:10142000E10F01384FEA520201EB43034FEA440453
:1014300041D0B34202EB0501F1DD002901EB0205C9
:1014400009DBB0469B1BA14288BF03F1FF33641A3E
:1014500017444646E4E7002DF3DB06F10108F1E707
:1014600025F00041214339D0002D50D1D40A153B3D
:1014700052052146002CF9D0E50256D4002000E0A8
:1014800028464900CC0200F10105F9D50C46114669
:10149000AA40C5F1200521FA05F5A3EB000E45EAA7
:1014A00004038EE7A142BBD8002901EB0205D2DB81
:1014B00098460023CBE7234312D178084FEA6C010A
:1014C00001F17F511CF0010F01F5001118BF40F030
:1014D000004001EB0E53024643EC102BBDE8F081B7
:1014E0007B1C16BF781C0CF1010C4008E6E710EEDF
:1014F000102A2B4610EE100A294600F009FF22465A
:101500002B4600F04FFD41EC100BBDE8F08120466A
:10151000294600F045FD02460B4601F023F841EC58
:10152000100BDBE729467346A8E7114620254FF04C
:10153000FF30B0E70000F07F2DE9F0472DED028B82
:1015400082B0CDED000A009C8DED010A34F0004719
:1015500014D0DDF8048028F00046B6F1FF4F07DD17
:10156000BD4802B0BDEC028BBDE8F04700F040BCC6
:10157000B7F1FF4F09DDB6F17E5FF1D1B7EE000A9A
:1015800002B0BDEC028BBDE8F087B8F1000FC0F2ED
:10159000F9804FF00009B7F1FF4F00F00681B7F175
:1015A0007E5F00F02C81B4F1804F00F04181019DFD
:1015B000DDF800A0B4F17C5F00EE105A40F002812B
:1015C000B8F1000F80F2398100F000FCB6F1FF4F56
:1015D00000F00A81002E00F00381B6F17E5F00F07A
:1015E000F9804FEAD873013B59EA030200F02C81DD
:1015F000B7F19A4F40F35281984A964240F3638282
:10160000974A964200F30081F7EE007A30EE670ABF
:10161000DFED946ADFED947A9FED945A9FED946A22
:10162000F1EE405AB5EE007AE5EE876AB6EE007A42
:10163000A6EEC07A60EE006A27EE267A67EEC77AD9
:10164000E0EE057AF0EE676AE0EE066A16EE902AA2
:1016500022F47F6222F00F0207EE102AA5EE867AAE
:1016600006EE902A77EEC77A24F47F6424F00F0404
:1016700007EE10AA06EE104A67EE877A37EE466A42
:1016800007EE104AE6EE267A09F1FF3959EA03031C
:1016900026EE877AB7EE000A77EE876ABFEE006A19
:1016A00016EE902A0CBFB0EE468AB0EE408A002AB1
:1016B00022F0004340F3BD81B3F1864F00F3FC817B
:1016C00000F0EF81B3F17C5F00F3BF810021084699
:1016D00022F47F6323F00F0306EE103ADFED656A14
:1016E000DFED655A9FED653ADFED653A9FED652ABE
:1016F0009FED654ADFED654A9FED655A36EE477A04
:10170000F0EE002A77EEC77A26EE267AA7EEA57AC3
:10171000F7EE005AF0EE477AA6EE037A67EE076A14
:10172000F0EE471AE6EE431AB0EE636AA6EE826A5E
:1017300077EEE17AA6EE264AE7EE277AE4EE264A2D
:10174000A4EEA65AB0EE456AB0EE475AA6EE665A27
:10175000F0EE456A36EEE26A27EE055AC5EE066AF5
:1017600076EEE77A37EEC77A35EEC70A10EE103A12
:101770000B44B3F5000FC0F2BE8100EE103A20EE2C
:10178000080AFDE6B7F1974F19DAB7F17E5F09DB7A
:10179000FB15C3F1960347FA03F202FA03F3BB42C7
:1017A00000F042814FF00009F9E6B6F17E5F3FF4A8
:1017B000E5AE2FDD002C2ADB9DED000AE0E64FF0C0
:1017C0000209E8E600F002FBB6F1FF4F02D0002E5E
:1017D0007FF403AF002CBCBFF7EE007A87EE800ADF
:1017E000B8F1000FBFF6CCAEA6F17E5656EA09035B
:1017F00040F0138170EE407A87EEA70AC0E6002C15
:101800000FDB9DED010ABBE6002C00F35F819FED2D
:10181000210AB5E6002CFADADDED007AB1EE670AAE
:10182000AEE69DED017AF7EE007A87EE870AA7E62D
:10183000DDED017A27EEA70AA2E602B0BDEC028B2D
:10184000BDE8F04700F082B907EE905A77EEE77AEC
:1018500087EEA70A94E600BFF0FB0008F7FF7F3F82
:101860000700803FABAAAA3E3BAAB83F70A5EC3662
:1018700000AAB83F8CBEBF351872313F0072313FAD
:101880000EEADDB54CBB313355B38A38610B36BB3C
:10189000ABAA2A3E000000000000804B18F0FF4F6A
:1018A00040F0FD805FED047A60EE277A6FF017025A
:1018B00017EE906A9148F115C6F316067F398642F5
:1018C000114446F07E5240F3E2808D48864240F358
:1018D00002819FED8C5A0131A2F50002F0EE453AEB
:1018E0000020B7EE006A06EE902A76EE867AB7EE12
:1018F000007A87EE278A521042F0005202F58022C9
:10190000024436EEC67A07EE902A27EE084A77EEB2
:10191000C65ADFED7D8A9FED7D0A7D4ADFED7D1A97
:10192000DFED7D0A9FED7D1A9FED7D2ADFED7D2A9B
:101930009FED7D3A24EE046A14EE100AA6EE280A02
:10194000104076EEE56AF0EE615A04EE900AE0EEA1
:10195000065AF1EE641AA1EEA77AF0EE607AE5EE8F
:10196000867AA1EEA67AF0EE415AE7EE865A67EE45
:10197000086AB0EE427AA5EE867A74EE247A26EEF4
:10198000066A67EEA67AF0EE085AE6EE077AB0EE3F
:10199000657AA4EEA47A9FED652A37EE276A07EEF2
:1019A000101A16EE101A114006EE101A76EE655A4D
:1019B000B8EEC77AE1EEA45A77EEE57A67EE847A5C
:1019C000E6EE867AF0EE675AE4EE865A15EE901A45
:1019D000114006EE901AE1EE866A05EE901A77EE57
:1019E000E67A67EEA27AE5EE837A77EEA37AF0EEF6
:1019F000676AE5EE826A76EE856A76EE876A16EEAB
:101A0000901A114006EE901A36EEC77A37EE457AF4
:101A1000A5EEC27A77EEC77A26E6B9F1010F7FF418
:101A2000AFADB1EE400AABE502F00102C2F102092E
:101A3000B5E53F498B4257DC7FF444AE76EEC76A8A
:101A4000F4EEE76AF1EE10FA4EDADB154FF400011E
:101A50007E3B41FA03F31344C3F3C751354C7F393E
:101A60000C41C3F3160023EA040306EE903A37EE66
:101A7000667AC1F1170140F400000841002A77EEB0
:101A8000876AB8BF4042C10516EE902A20E69FED56
:101A90001D5A0020F0EE453AB7EE006A23E7002217
:101AA00008E79FED256A76EEC76A37EE866AB4EEE0
:101AB000E66AF1EE10FAC8DDDFED207A28EE270A9B
:101AC00020EE270A5CE5002CBFF6A1AE9FED1B0AB5
:101AD00020EE000A54E59FED1A5ADFED1A3A4FF452
:101AE0000010B7EE086AFEE6DFED177A28EE270A47
:101AF00020EE270A44E500F0DDF940E671C41C0041
:101B0000D6B35D000000000042F1533E55326C3EFA
:101B100000F0FFFF05A38B3EABAAAA3EB76DDB3EEC
:101B20009A99193F4F38763FA0C39D360038763FCB
:101B300000001643FFFF7F003CAA3833CAF2497108
:101B400000C0153FDCCFD1356042A20DB1EEC00A16
:101B5000704700BF51EC100B10EE102A21F000432B
:101B600043EC102B704700BF10EE903A43F000405A
:101B700000F58010C00F70479FED010B704700BF4C
:101B8000000000000000F87FF0B553EC102BC3F309
:101B90000A56A6F2FF30132883B019464FEAD374D1
:101BA00010EE105A37DC00282DDB3D4E064103EACB
:101BB000060717432BD0760833401D430CD04FF453
:101BC0008023132821EA060643FA00F141EA0601C0
:101BD0000CBF4FF000450025324800EBC4042A46F4
:101BE000D4E900450B462046294600F0DBF9CDE953
:101BF000000122462B46DDE9000100F0D1F941EC5D
:101C0000100B03B0F0BD23F00040104322D143EC91
:101C1000102B03B0F0BD332809DDB0F5806FF6D18D
:101C200010EE100A00F0BEF941EC100BF1E7A6F23D
:101C300013464FF0FF30F0400242E8D04008024225
:101C4000CAD04FF0804325EA000043FA06F640EA86
:101C50000605C1E7C3F3130010434542054311488D
:101C600000EBC400D0E90067590C2D0B490405F4C2
:101C7000002545EA01033046394600F093F9CDE9E5
:101C800000013B463246DDE9000100F089F921F010
:101C9000004343EAC47141EC100B03B0F0BD00BF38
:101CA000FFFF0F00D8E1000838B553EC102BC3F349
:101CB0000A511C46054681BB10EE101A23F0004461
:101CC000214329D0194600223D4B3E4C10EE100A0C
:101CD00000F01EFBA54202460B4616DB0C46C1F384
:101CE0000A513639294440F2FE70814221DC002934
:101CF00047DC11F1350F34DA4CF250318D4218DCEB
:101D0000002B27A1D1E9000144DB25A3D3E900235F
:101D100000F0FEFA41EC100B38BD40F2FF7081423A
:101D2000E0D110EE100A194600F03CF941EC100B1E
:101D300038BD002B1CA1D1E9000107DB1AA3D3E9B0
:101D4000002300F0E5FA41EC100B38BD18A1D1E9F1
:101D5000000115A3D3E9002300F0DAFA41EC100BDF
:101D6000F3E724F0FF4424F4E004363144EA01535D
:101D7000104619460022144B00F0CAFA41EC100B31
:101D800038BD24F0FF4424F4E00444EA015343EC5A
:101D9000102B38BD08A1D1E90001B6E7AFF30080F0
:101DA00059F3F8C21F6EA5019C7500883CE4377E8C
:101DB0009C7500883CE437FE59F3F8C21F6EA5817C
:101DC00000005043B03CFFFF0000903C10EE103A82
:101DD00023F0004300EE103A704700BF10EE103AB7
:101DE00023F00040B0F1FF4FACBF0020012070474E
:101DF0009FED010A704700BF0000C07F10EE101A6F
:101E000021F00040C30DA3F17F02162A27DC28B37E
:101E100010B4002A83B04FEAD17426DB234B134160
:101E2000194217D05808014207D04FF4001321EA95
:101E3000000113410B4300EE103A1D4B03EB8404E9
:101E4000D4ED007A37EE800A8DED010A9DED010A8E
:101E500030EE670A03B05DF8044B70477047B0F18D
:101E6000FF4FFBD330EE000A7047C1F316035B420D
:101E70000F4A5B0A090D03F480030905194302EBBD
:101E80008402D2ED006A07EE901A36EEA77A8DED45
:101E9000017ADDED017A77EEE67A17EE903A23F0DB
:101EA000004343EAC47300EE103AD3E7FFFF7F001C
:101EB000E8E1000882B08DED010A019B33F0004299
:101EC0002AD0B2F1FF4F23D213F0FF4F28D19DED5E
:101ED000017ADFED2A7A2A4B67EE277A9842CDED18
:101EE000017A37DB019BC3F3C752193A0244FE2A39
:101EF0001ADD9FED240A9FED247A019B002BF0EE62
:101F0000407AB8BFB0EE470A20EE270A02B0704709
:101F100030EE000A02B070479DED010A02B0704732
:101F2000D20D0244FE2AE4DC002A0BDC12F1160F6B
:101F300017DA4CF250339842DBDC9FED140A9FED28
:101F4000147ADAE723F0FF4343EAC25300EE103A73
:101F500002B070479FED0D0ADDED017A27EE800A91
:101F6000D8E7193223F0FF4343EAC253DFED097A81
:101F700007EE103A27EE270ACCE700BF0000004C1E
:101F8000B03CFFFFCAF24971CAF249F16042A20DAA
:101F90006042A28D0000003381F0004102E000BFEA
:101FA00083F0004330B54FEA41044FEA430594EA19
:101FB000050F08BF90EA020F1FBF54EA000C55EA54
:101FC000020C7FEA645C7FEA655C00F0E2804FEA25
:101FD0005454D4EB5555B8BF6D420CDD2C4480EA07
:101FE000020281EA030382EA000083EA010180EA37
:101FF000020281EA0303362D88BF30BD11F0004F85
:102000004FEA01314FF4801C4CEA113102D04042BA
:1020100061EB410113F0004F4FEA03334CEA1333F5
:1020200002D0524263EB430394EA050F00F0A7800D
:10203000A4F10104D5F1200E0DDB02FA0EFC22FA08
:1020400005F2801841F1000103FA0EF2801843FAFC
:1020500005F359410EE0A5F120050EF1200E012AED
:1020600003FA0EFC28BF4CF0020C43FA05F3C0182B
:1020700051EBE37101F0004507D54FF0000EDCF1A4
:10208000000C7EEB00006EEB0101B1F5801F1BD34D
:10209000B1F5001F0CD349085FEA30004FEA3C0C51
:1020A00004F101044FEA445212F5800F80F09A8047
:1020B000BCF1004F08BF5FEA500C50F1000041EB4B
:1020C000045141EA050130BD5FEA4C0C404141EB4F
:1020D000010111F4801FA4F10104E9D191F0000F76
:1020E00004BF01460020B1FA81F308BF2033A3F1F9
:1020F0000B03B3F120020CDA0C3208DD02F1140CF0
:10210000C2F10C0201FA0CF021FA02F10CE002F12A
:102110001402D8BFC2F1200C01FA02F120FA0CFC23
:10212000DCBF41EA0C019040E41AA2BF01EB04516C
:10213000294330BD6FEA04041F3C1CDA0C340EDC6A
:1021400004F11404C4F1200220FA04F001FA02F3AD
:1021500040EA030021FA04F345EA030130BDC4F16B
:102160000C04C4F1200220FA02F001FA04F340EA60
:102170000300294630BD21FA04F0294630BD94F011
:10218000000F83F4801306BF81F480110134013DF8
:102190004EE77FEA645C18BF7FEA655C29D094EA69
:1021A000050F08BF90EA020F05D054EA000C04BFE7
:1021B0001946104630BD91EA030F1EBF00210020D2
:1021C00030BD5FEA545C05D14000494128BF41F071
:1021D000004130BD14F580043CBF01F5801130BDD5
:1021E00001F0004545F0FE4141F470014FF0000060
:1021F00030BD7FEA645C1ABF194610467FEA655C11
:102200001CBF0B46024650EA013406BF52EA0335B2
:1022100091EA030F41F4002130BD00BF90F0000FA0
:1022200004BF0021704730B54FF4806404F13204DC
:102230004FF000054FF0000150E700BF90F0000F95
:1022400004BF0021704730B54FF4806404F13204BC
:1022500010F0004548BF40424FF000013EE700BF8C
:1022600042004FEAE2014FEA31014FEA02701FBF1C
:1022700012F07F4393F07F4F81F06051704732F04E
:102280007F4208BF704793F07F4F04BF41F40021A5
:10229000704730B54FF4607401F0004521F0004103
:1022A0001CE700BF50EA010208BF704730B54FF08D
:1022B00000050AE050EA010208BF704730B511F08E
:1022C000004502D5404261EB41014FF4806404F1C6
:1022D00032045FEA915C3FF4D8AE4FF003025FEA4C
:1022E000DC0C18BF03325FEADC0C18BF033202EBD0
:1022F000DC02C2F1200300FA03FC20FA02F001FA2A
:1023000003FE40EA0E0021FA02F11444BDE600BFCC
:1023100070B54FF0FF0C4CF4E06C1CEA11541DBF7B
:102320001CEA135594EA0C0F95EA0C0F00F0DEF846
:102330002C4481EA030621EA4C5123EA4C5350EA2B
:10234000013518BF52EA033541F4801143F480137C
:1023500038D0A0FB02CE4FF00005E1FB02E506F00D
:102360000042E0FB03E54FF00006E1FB03569CF062
:10237000000F18BF4EF0010EA4F1FF04B6F5007F68
:1023800064F5407404D25FEA4E0E6D4146EB0606DA
:1023900042EAC62141EA55514FEAC52040EA5E5063
:1023A0004FEACE2EB4F1FD0C88BFBCF5E06F1ED80D
:1023B000BEF1004F08BF5FEA500E50F1000041EB44
:1023C000045170BD06F0004646EA010140EA0200F1
:1023D00081EA0301B4EB5C04C2BFD4EB0C0541EA13
:1023E000045170BD41F480114FF0000E013C00F328
:1023F000AB8014F1360FDEBF002001F0004170BD4C
:10240000C4F10004203C35DA0C341BDC04F1140464
:10241000C4F1200500FA05F320FA04F001FA05F2F0
:1024200040EA020001F0004221F0004110EBD370BD
:1024300021FA04F642EB06015EEA430E08BF20EAE9
:10244000D37070BDC4F10C04C4F1200500FA04F38C
:1024500020FA05F001FA04F240EA020001F000411E
:1024600010EBD37041F100015EEA430E08BF20EA91
:10247000D37070BDC4F1200500FA05F24EEA020ED9
:1024800020FA04F301FA05F243EA020321FA04F008
:1024900001F0004121FA04F220EA020000EBD370BF
:1024A0005EEA430E08BF20EAD37070BD94F0000FBF
:1024B0000FD101F00046400041EB010111F4801FF3
:1024C00008BF013CF7D041EA060195F0000F18BFA4
:1024D000704703F00046520043EB030313F4801FE0
:1024E00008BF013DF7D043EA0603704794EA0C0F9A
:1024F0000CEA135518BF95EA0C0F0CD050EA4106B0
:1025000018BF52EA4306D1D181EA030101F000412C
:102510004FF0000070BD50EA410606BF1046194654
:1025200052EA430619D094EA0C0F02D150EA013660
:1025300013D195EA0C0F05D152EA03361CBF1046A1
:1025400019460AD181EA030101F0004141F0FE4140
:1025500041F470014FF0000070BD41F0FE4141F4C4
:10256000780170BD70B54FF0FF0C4CF4E06C1CEAC4
:1025700011541DBF1CEA135594EA0C0F95EA0C0F79
:1025800000F0A7F8A4EB050481EA030E52EA033534
:102590004FEA013100F088804FEA03334FF0805555
:1025A00045EA131343EA12634FEA022245EA111582
:1025B00045EA10654FEA00260EF000419D4208BF33
:1025C000964244F1FD0404F5407402D25B084FEAE0
:1025D0003202B61A65EB03055B084FEA32024FF48C
:1025E00080104FF4002CB6EB020E75EB030E22BFE9
:1025F000B61A754640EA0C005B084FEA3202B6EBA9
:10260000020E75EB030E22BFB61A754640EA5C0057
:102610005B084FEA3202B6EB020E75EB030E22BFE7
:10262000B61A754640EA9C005B084FEA3202B6EBE8
:10263000020E75EB030E22BFB61A754640EADC00A7
:1026400055EA060E18D04FEA051545EA16754FEA09
:1026500006164FEAC30343EA52734FEAC2025FEA27
:102660001C1CC0D111F4801F0BD141EA00014FF0B6
:1026700000004FF0004CB6E711F4801F04BF014387
:102680000020B4F1FD0C88BFBCF5E06F3FF6AFAEA3
:10269000B5EB030C04BFB6EB020C5FEA500C50F133
:1026A000000041EB045170BD0EF0004E4EEA1131B6
:1026B00014EB5C04C2BFD4EB0C0541EA045170BDBD
:1026C00041F480114FF0000E013C90E645EA060E01
:1026D0008DE60CEA135594EA0C0F08BF95EA0C0F2F
:1026E0003FF43BAF94EA0C0F0AD150EA01347FF477
:1026F00034AF95EA0C0F7FF425AF104619462CE74E
:1027000095EA0C0F06D152EA03353FF4FDAE1046B0
:10271000194622E750EA410618BF52EA43067FF401
:10272000C5AE50EA41047FF40DAF52EA43057FF491
:10273000EBAE12E74FF0FF3C06E000BF4FF0010C9C
:1027400002E000BF4FF0010C4DF804CD4FEA410C00
:102750007FEA6C5C4FEA430C18BF7FEA6C5C1BD0CD
:1027600001B050EA410C0CBF52EA430C91EA030F4E
:1027700002BF90EA020F0020704710F1000F91EAAB
:10278000030F58BF994208BF90422CBFD8176FEA79
:10279000E37040F0010070474FEA410C7FEA6C5C47
:1027A00002D150EA013C07D14FEA430C7FEA6C5C4E
:1027B000D6D152EA033CD3D05DF8040B704700BF7A
:1027C0008446104662468C461946634600E000BFC8
:1027D00001B5FFF7B7FF002848BF10F1000F01BD9A
:1027E0004DF808EDFFF7F4FF0CBF012000205DF865
:1027F00008FB00BF4DF808EDFFF7EAFF34BF0120EA
:1028000000205DF808FB00BF4DF808EDFFF7E0FF82
:1028100094BF012000205DF808FB00BF4DF808EDD3
:10282000FFF7CEFF94BF012000205DF808FB00BF3A
:102830004DF808EDFFF7C4FF34BF012000205DF81C
:1028400008FB00BF4FEA410C7FEA6C5C02D150EA02
:10285000013C0AD14FEA430C7FEA6C5C02D152EA98
:10286000033C02D14FF0000070474FF00100704769
:102870004FEA410212F5001215D211D56FF47873A8
:10288000B3EB625212D94FEAC12343F0004343EA4B
:10289000505311F0004F23FA02F018BF4042704726
:1028A0004FF00000704750EA013005D111F00040B0
:1028B00008BF6FF0004070474FF00000704700BF46
:1028C0004A0011D212F5001211D20DD56FF47873AF
:1028D000B3EB62520ED44FEAC12343F0004343EA04
:1028E000505323FA02F070474FF00000704750EA4F
:1028F000013002D14FF0FF3070474FF000007047B9
:102900004FEA4102B2F1E04324BFB3F5001CDCF111
:10291000FE5C0DD901F0004C4FEAC0024CEA507049
:10292000B2F1004F40EB830008BF20F00100704778
:1029300011F0804F21D113F13872BCBF01F000407B
:10294000704741F480114FEA5252C2F11802C2F1AD
:10295000200C10FA0CF320FA02F018BF40F001002E
:102960004FEAC1234FEAD32303FA0CFC40EA0C00E0
:1029700023FA02F34FEA4303CCE77FEA625307D11D
:1029800050EA01331EBF4FF0FE4040F44000704754
:1029900001F0004040F0FE4040F40000704700BFEE
:1029A00053B94AB9002908BF00281CBF4FF0FF31B6
:1029B0004FF0FF3000F074B9ADF1080C6DE904CEB2
:1029C00000F006F8DDF804E0DDE9022304B070470A
:1029D0002DE9F047089E04468846002B40F085808C
:1029E0008A42154648D9B2FA82F24AB1C2F12007AA
:1029F00001FA02F320FA07F7954047EA03089440EA
:102A00004FEA154E230CB8FBFEF71FFA85FC0EFBB0
:102A1000178843EA084307FB0CF1994209D9EB18E0
:102A200007F1FF3080F0E380994240F2E080023FFE
:102A30002B445B1AA4B2B3FBFEF00EFB103344EA46
:102A4000034400FB0CFCA44509D92C1900F1FF3309
:102A500080F0CB80A44540F2C88002382C4440EA84
:102A60000740A4EB0C0400271EB1D4400023C6E9A4
:102A700000433946BDE8F087002A53D0B2FA82F20B
:102A8000002A40F0B680491B4FEA154E1FFA85F820
:102A90000127B1FBFEFC230C0EFB1C1143EA014392
:102AA00008FB0CF1994207D9EB180CF1FF3002D268
:102AB000994200F2EC808446591AA3B2B1FBFEF0B1
:102AC0000EFB101443EA044408FB00F8A04507D9A4
:102AD0002C1900F1FF3302D2A04500F2DC80184629
:102AE000A4EB080440EA0C40BEE78B4208D9002E54
:102AF00078D00027C6E9000138463946BDE8F0879E
:102B0000B3FA83F77FB98B4202D3824200F2BD80D1
:102B1000841A61EB030301209846002EA9D0C6E970
:102B20000048A6E7FFDEC7F12005BB4022FA05FCFE
:102B30004CEA030C01FA07F420FA05F821FA05F330
:102B40004FEA1C4E48EA0404B3FBFEF9210C0EFBCD
:102B500019331FFA8CF841EA034309FB08FA9A4536
:102B600002FA07F200FA07F10BD91CEB030309F193
:102B7000FF3080F088809A4540F28580A9F10209F3
:102B80006344A3EB0A03A4B2B3FBFEF00EFB1033C5
:102B900044EA034400FB08F8A04508D91CEB0404F0
:102BA00000F1FF336BD2A04569D90238644440EA92
:102BB0000940A4EB0804A0FB02894C45C6464B46DD
:102BC00054D351D0002E69D0B1EB0E0264EB030454
:102BD00004FA05F522FA07F3FC401D43C6E9005448
:102BE000002746E73746304643E7184637E70746AB
:102BF0001FE7C2F1200320FA03F7954001FA02F023
:102C000021FA03F34FEA154E3843010CB3FBFEF7EC
:102C10001FFA85F80EFB173341EA034107FB08F35F
:102C20008B4204FA02F407D9691807F1FF3C28D255
:102C30008B4226D9023F2944CB1A81B2B3FBFEF066
:102C40000EFB103341EA034100FB08F38B4207D926
:102C5000691800F1FF3C10D28B420ED9023829448A
:102C6000C91A40EA074714E74145ABD2B8EB020E58
:102C700069EB0C0201381346A4E76046F0E71846FA
:102C800095E76746D8E781467BE7384645E7ACF1EC
:102C9000020C2B4410E702382C4421E73746E8E6C3
:102CA000704700BF08B5062000F024FA01200BF0A1
:102CB00063FA00BF014B1868704700BF040C002086
:102CC000032A70B412D940EA0105AD0704460B4649
:102CD00020D11946204653F8045B54F8046BAE42E9
:102CE00018D1043A032A20461946F2D8541E72B16C
:102CF00003780A789A4208BF241806D00CE010F82E
:102D0000013F11F8012F934206D1A042F7D10020D4
:102D100070BC7047541EEBE7981A70BC704700BF38
:102D2000844641EA000313F003036DD1403A41D3D6
:102D300051F8043B40F8043B51F8043B40F8043B95
:102D400051F8043B40F8043B51F8043B40F8043B85
:102D500051F8043B40F8043B51F8043B40F8043B75
:102D600051F8043B40F8043B51F8043B40F8043B65
:102D700051F8043B40F8043B51F8043B40F8043B55
:102D800051F8043B40F8043B51F8043B40F8043B45
:102D900051F8043B40F8043B51F8043B40F8043B35
:102DA00051F8043B40F8043B51F8043B40F8043B25
:102DB000403ABDD2303211D351F8043B40F8043BC5
:102DC00051F8043B40F8043B51F8043B40F8043B05
:102DD00051F8043B40F8043B103AEDD20C3205D3D5
:102DE00051F8043B40F8043B043AF9D2043208D0CD
:102DF000D2071CBF11F8013B00F8013B01D30B883F
:102E000003806046704700BF082A13D38B078DD01C
:102E100010F003038AD0C3F10403D21ADB071CBFEE
:102E200011F8013B00F8013B80D331F8023B20F858
:102E3000023B7BE7043AD9D3013A11F8013B00F891
:102E4000013BF9D20B7803704B7843708B78837019
:102E500060467047F0B4860746D0541E002A3CD026
:102E6000CAB2034602E014F1FF3436D303F8012B53
:102E70009D07F8D1032C29D9CDB245EA05250F2CA1
:102E800045EA054533D9A4F11006360903F12007B8
:102E900007EB061703F1100242E9045542E9025517
:102EA0001032BA42F8D1721C14F00C0F03EB02126C
:102EB00004F00F0613D0331F23F00303043313442D
:102EC00042F8045B9342FBD106F003042CB1C9B273
:102ED0001C4403F8011B9C42FBD1F0BC70473446F4
:102EE0001346002CF3D1F8E714460346C2E71A460E
:102EF0002646E0E738B5124B1C68A26B05461AB1AE
:102F00000023C2E9045338BD182000F071F90246CD
:102F1000A06378B1012000210A4B1360C2E90401CB
:102F20000B230948094993810023C2E90101C2E941
:102F3000045338BD064B0748422100F013F900BF87
:102F4000040C00200E33CDAB34126DE6ECDE050030
:102F500098FB0008B0FB000838B51A4B1C68A26B40
:102F600092B1146918495369184801FB04F100FB38
:102F70000313A4FB0045611C1D4445F1000323F02D
:102F80000040C2E9041338BD182000F031F90246B0
:102F9000A06388B101200021C2E904010A480C4C59
:102FA0000C4B0D490D4D146053600B240346956086
:102FB0009481C2E9041338BD094B0A484E2100F040
:102FC000D1F800BF040C00202DF451582D7F954CF2
:102FD0000E33CDAB34126DE62E7F954CECDE050042
:102FE00098FB0008B0FB000810B58021044600F0F3
:102FF00065F9606440B1031F00227C3043F8042F60
:103000008342FBD1002010BD4FF0FF3010BD00BF48
:10301000436C0BB100207047E6E700BF1F2970B575
:10302000054608D8436C16460C464BB153F82400AD
:1030300043F8246070BD162202604FF0FF3070BD6F
:10304000FFF7D2FF08B96B6CF0E74FF0FF3070BDAF
:103050001F2938B521D8426C05460C466AB152F892
:10306000213053B1012B16D0591C10D00025204619
:1030700042F824509847284638BD284600F070F89A
:10308000224601462846BDE8384000F055B81623D0
:103090000360012038BD002038BD162303604FF0C7
:1030A000FF3038BD1F2921D838B5436C05460C4682
:1030B00083B153F8242003EB84034AB1511C10D090
:1030C000012A0CD0002520461D609047284638BDB7
:1030D000012038BDFFF788FF28B96B6CE9E70320B2
:1030E00038BD022038BD4FF0FF3038BD4FF0FF3003
:1030F000704700BF024B01461868FFF7A9BF00BF29
:10310000040C0020024B0A4601461868FFF786BFF0
:10311000040C0020034B1868436C0BB1002070476F
:1031200062E700BF040C0020024B01461868FFF75D
:10313000B9BF00BF040C002038B50B46074C05464C
:1031400011461846002323600BF01EF8431C00D0E4
:1031500038BD2368002BFBD02B6038BDC01F00207A
:103160000BF01AB800B50A4C2668054685B01C4617
:10317000F06852B1074B0091CDE9013206492B4668
:10318000224600F021F8FFF78DFD044B1A46F2E7C6
:10319000040C0020E4FB0008F4FB0008F0FB00082E
:1031A00008B513460022FFF7DDFF00BF0CB400B5E1
:1031B00083B004AB53F8042B019300F027F903B05C
:1031C0005DF804EB02B070470EB410B583B005ABE8
:1031D000064C53F8042B01930146206800F016F9C1
:1031E00003B0BDE8104003B0704700BF040C0020DE
:1031F000024B0146186800F061B800BF040C0020C3
:10320000024B0146186800F003B800BF040C002010
:1032100000293CD038B551F8043C0C1F002BB8BF36
:10322000E418054601F00CFA234B1A682AB1A242B1
:103230000DD921686018824223D0626028461C6044
:10324000BDE8384001F0FEB9A34203D81A465368DE
:10325000002BF9D111685018A04219D024D8216848
:103260006018834206D0636054602846BDE8384049
:1032700001F0E8B9D3E900030144636021605460C0
:10328000F3E7D2E90002014462602160D6E77047AB
:1032900020680144501883421160E6D1D3E900034D
:1032A000014453601160E0E70C232B602846BDE821
:1032B000384001F0C7B900BFE8100020F8B5CD1CB8
:1032C00025F0030508350C2D38BF0C25002D0646CA
:1032D00033DBA94231D82A4F01F0B2F93A6852B132
:1032E00013685B1B04D43FE023685B1B29D522468F
:1032F0005468002CF8D1796800293BD02946304623
:103300000AF01EFF431C28D0C41C24F00304A04272
:1033100005D0211A30460AF013FF01301DD0256078
:10332000304601F08FF904F10B0020F00700231D57
:10333000C21A01D01B1AA350F8BD0C223260002023
:10334000F8BD0B2B05D8A242636811D05360E7E7A4
:10335000144623601C442560E2E70C2330463360AA
:1033600001F070F90020F8BD0B2BF1D8536814461A
:103370003B60D5E730460AF0E3FE7860BEE700BF69
:10338000E81000209368013B002B936011DA10B421
:103390009469A34209DB0A2907D01368581C1060FE
:1033A000197008465DF8044B70475DF8044B00F057
:1033B0007DBB1368581C106019700846704700BF29
:1033C0009BB1F8B513440F4606465D1E541E01E03E
:1033D000AC4208D03A4614F8011F3046FFF7D2FF3E
:1033E000431CF5D1F8BD0020F8BD0020704700BF98
:1033F000936810B5144613B95360184610BD00F019
:1034000015FE0023C4E9013310BD00BF2DE9F04FC4
:103410009FB08B4690461C46039018B18369002BE1
:1034200000F0B780A24B9B4500F0B980A14B9B45B3
:1034300000F0C780A04B9B4504BF039BD3F80CB0A2
:10344000BBF80C30180740F1B280DBF81030002BCD
:1034500000F0AD8030238DF8323098F800300594BC
:10346000002120220B918DF83120944E0127002B52
:1034700000F08780252B00F01581454603E0252BC1
:1034800000F0A38025466B786C1C002BF7D1B4EBC1
:10349000080A76D04246534659460398FFF790FFF4
:1034A00001306ED00B9B6A7853440B93002A68D08E
:1034B00000234FF0FF3201340693CDE908338DF835
:1034C0005B301C93079205E0069A07FA03F3134357
:1034D0002C4606932546052215F8011B304600F0C0
:1034E000F7FFAA46831B0028EED1069BD90644BFEE
:1034F00020228DF85B2021781A0744BF2B228DF8FB
:103500005B202A2966D1059A1168043200290592A8
:10351000C0F29D8009916178A51C2E2973D0684C5A
:103520000322204600F0D4FF002800F08680001B14
:10353000069B402404FA00F00343069305F10108BA
:10354000297860488DF83010062200F0C1FF00286D
:1035500000F083805C4B002B72D005AB00935A4681
:103560005A4B039806A9AFF300808146B9F1FF3F9B
:1035700007D00B9B4B440B9398F80030002B7FF443
:1035800079AFBBF80C305B0618D40B981FB0BDE8C0
:10359000F08F00F02BFD464B9B457FF447AF039B1C
:1035A000D3F804B0BBF80C3018073FF54EAF5946BE
:1035B000039800F0DBFA00283FF44CAF4FF0FF30E7
:1035C000E4E7039BD3F808B03AE7B4EB080A3FF40A
:1035D0006FAF5FE7A1F13002092A88BFA2469CD8ED
:1035E000099B01E02C460135297803EB830302EBAC
:1035F0004303A1F13002092AAA46F3D92E2904F186
:10360000020509938BD19AF801102A292FD1059B25
:103610009AF802101A6807920433002A05930AF1F7
:1036200003050AF1020338DB254C032220469A46A3
:1036300000F04EFF00287FF47AAFA84655467FE79A
:10364000059B073323F007030833059391E74942AD
:1036500043F00203099106935DE705AB00935A46D8
:103660001A4B039806A900F0D5F881467EE7A1F130
:1036700030020023092A079301D915E055466978DD
:1036800003EB830302EB4303A1F13002092A05F1A6
:10369000010AF3D90235079341E74FF0FF329A460A
:1036A00007923CE7444603E7AA46013537E700BFE7
:1036B00034E2000814E20008F4E1000824FC0008E9
:1036C0002CFC000830FC000800000000C13300089A
:1036D00010B4044C13460A46014620685DF8044BBA
:1036E000FFF794BE040C00202DE9F0470C469146EC
:1036F0000A698968DDF820808A42B8BF0A46C9F89D
:10370000002094F8431006461F4611B10132C9F853
:103710000020236899065CD5D9F800200232C9F848
:103720000020236813F0060F19461DD1E1688A1A9C
:10373000002AD8BF194617DD04F1190A002505E053
:10374000E368D9F800209B1AAB420CDD01235246F6
:1037500039463046C047013005F10105F0D14FF040
:10376000FF30BDE8F087216894F84330003318BF7C
:1037700001238A060AD5E1185A1C302081F843003B
:10378000224494F8451082F84310023304F14302B6
:1037900039463046C0470130E1D02368A26821692C
:1037A00003F00603042B1DD08A4226DD4FF00009EA
:1037B000521A91441A34002501E04D451DDA0123C7
:1037C000224639463046C047013005F10105F4D1A3
:1037D000C5E713F0060F13D094F84330003318BF39
:1037E0000123D3E7D9F80000E3688A42A3EB000382
:1037F00023EAE379DCDC002BDCDC0020BDE8F08789
:10380000E168D9F800208A1A002AD8BF194693DC4B
:10381000AAE700BF2DE9F0430C46097E85B06E296A
:10382000064617460C98984604F1430E6DD039D9D8
:10383000732900F0F68044D9752900F004817829B5
:1038400040F0118178232268DFF858C284F84530AF
:103850000168150651F8043B016040F1A180D107D1
:1038600044BF42F020022260002B00F0938010221F
:10387000002184F843106068A0600028C0F2C8806E
:10388000216821F004012160002B40F0A380002872
:1038900040F0C0807546082A00F0AC80AEEB05030E
:1038A000236141E0632900F0E5801AD8002938D06F
:1038B000582940F0D88084F845102268DFF8E8C124
:1038C000C6E76F2900F0BF80702940F0CC802268E5
:1038D000DFF8D0C142F020027823226084F845301E
:1038E000B6E7642902D0692940F0BD8022680368E8
:1038F000110603F1040557D5196805600B46002928
:1039000059DBDFF8A4C10A22B5E7036822686169C0
:103910001D1D056015061B6802D4500600F1BD8010
:103920001960002375462361CDF800803B4603AA49
:1039300021463046FFF7D8FE013020D02A462369C1
:1039400039463046C047013019D022680398E368F1
:10395000920719D51A1A002A16DD04F11909002553
:1039600004E0E36803981A1AAA420DDD01234A46CF
:1039700039463046C047013005F10105F1D14FF01D
:10398000FF3005B0BDE8F0839842B8BF184605B0D7
:10399000BDE8F083226822F020022260102267E74F
:1039A000500648BF9BB25AE75106A5D5B3F900307F
:1039B00005601946A3E76168A1602D200029C3F1C5
:1039C000000384F8430002DB22F004022260DFF8E7
:1039D000D8C00A22754600E00B46B3FBF2F102FBA9
:1039E000113093421CF8000005F8010DF4D2082AAA
:1039F0007FF454AF2368DB077FF550AF626823691B
:103A00009A423FF74BAF302305F8013C013D45E7B3
:103A1000002BDFD19CF8003084F8423004F14205DD
:103A200039E703686268191D01601D680021284696
:103A300000F04EFD002832D0401B60602061002362
:103A400084F8433070E72268036812F0800F03F1B6
:103A500004051AD01B6805606F290CBF08220A22D2
:103A6000DFF844C004E7012384F84210236104F125
:103A70004205E4E703681A68191D0123016004F197
:103A8000420584F842202361D9E712F0400F0DBFB0
:103A90001B6805601B880560DEE7198041E76068E8
:103AA000CCE700BF4CFC000838FC0008F8B50D4618
:103AB0001446064608B1836943B3254B9C422AD07D
:103AC000244B9C4229D0244B9C4208BFF468A38914
:103AD000A269A2601A0722D5236903B3226861692B
:103AE000D31AEDB299422F4629DD0133A168501C4B
:103AF0000139A1602060157062699A4216D0A389CD
:103B0000DB0701D50A2D11D03846F8BD00F06EFA5A
:103B10000F4B9C42D4D17468D9E7B468D7E72146EB
:103B2000304600F023F838B92369D7E721463046FC
:103B300000F032F90028E7D04FF0FF37E4E72146E4
:103B4000304600F029F90028F6D122680123CDE79C
:103B500034E2000814E20008F4E10008024B0A46CF
:103B600001461868FFF7A2BF040C00203B4B70B55C
:103B70001D6806460C460DB1AB69DBB1384B9C4263
:103B80001ED0384B9C424AD0374B9C4208BFEC6851
:103B9000B4F90C2093B2190718D5206908B313F0B3
:103BA00001022CD0636900225B42A361A26060B372
:103BB000002070BD284600F019FA294B9C42E0D144
:103BC0006C68B4F90C2093B21907E6D4DD063CD535
:103BD000580726D4206942F00803A3819BB200282D
:103BE000DDD103F42072B2F5007FD8D030462146F3
:103BF00000F01EFCA389206913F00102D2D19907BD
:103C000058BF6269A2600028D2D1B4F90C301A06FC
:103C1000CFD543F04003A3814FF0FF3070BDAC68B7
:103C2000B6E7616B51B104F14403994204D03046C8
:103C3000FFF7EEFAB4F90C20002363630023206938
:103C4000636022F024022060C5E742F040020923AD
:103C500033604FF0FF30A28170BD00BF040C002024
:103C600034E2000814E20008F4E100088B891A0726
:103C70002DE9F0410C46804641D44A68002A59DDBE
:103C8000E66A002E53D00022D8F80050216AC8F806
:103C9000002013F4805251D101234046B047431C09
:103CA0005FD0A389E66A216A5F0705D56268636B06
:103CB000801A0BB1236CC01A024600234046B0475D
:103CC000461C45D1D8F80030B4F90C20002B55D053
:103CD0001D2B01D0162B5AD123690022C4E90032D2
:103CE000616BC8F8005011B304F14403994202D04B
:103CF0004046FFF78DFA00206063BDE8F0810E6951
:103D0000AEB10D680E6099070CBF63690023AD1B4F
:103D1000A3600AE02B463246A76A216A4046B847AC
:103D20000028A5EB000506440ADD002DF2DC00208A
:103D3000BDE8F0810A6C002AA2DCF8E7606DB3E709
:103D4000A38943F04003A3814FF0FF30BDE8F08129
:103D50002269A389226000226260DA04C0D560650E
:103D6000BEE7D8F80030002B9BD01D2B0CD0162BB3
:103D70000AD0A38943F04003A381D9E72169C4E9AC
:103D80000013D304ACD5EAE7C8F80050CFE742F0FF
:103D90004002A281CCE700BF0B6923B310B50446F3
:103DA00082B008B18369BBB1104B994212D0104B5D
:103DB000994216D00F4B994208BFE168B1F90C3017
:103DC0002BB1204602B0BDE81040FFF74FBF0020E6
:103DD00002B010BD6168F1E7019100F007F90199A7
:103DE000E2E7A168EAE70020704700BF34E200087C
:103DF00014E20008F4E1000820B1054B0146186800
:103E0000FFF7CABF034B0449186800F0B9BA00BFF6
:103E1000040C0020F0E10008993D000800207047E4
:103E2000014900F0ADBA00BF993D0008002070477D
:103E300070B54A1E682505FB02F50E4605F17401B2
:103E4000FFF73CFA044640B100210C30666005F1F2
:103E500068022160A060FEF7FDFF204670BD00BF34
:103E60001E4B70B51D68AB69064643B34835D5E9AE
:103E70000134013B05D51EE0013B5A1C04F16804E6
:103E800019D0B4F90C20002AF6D10025144B656630
:103E9000C4E90055A560C4E90455A5612946E3605D
:103EA000082204F15C00FEF7D5FFC4E90D55C4E912
:103EB0001255204670BD2C682CB12546D7E7284600
:103EC00000F010F8D2E704213046FFF7B1FF0446B6
:103ED00028600028F1D10C233360EAE7F0E1000804
:103EE0000100FFFF2DE9F84F334B34491A68816216
:103EF00090424FF00003C0E91233036504BF012371
:103F000083610546FFF7ACFF68602846FFF7A8FF0E
:103F1000A8602846FFF7A4FF6E68E8600024042329
:103F2000F3607466C6E90044B460C6E90444B46151
:103F3000214606F15C000822FEF78CFFDFF888B00E
:103F4000AF68DFF888A0DFF88890DFF888801C4B26
:103F5000C6F83080C6E9086BC6E90AA92146FB60AD
:103F600008227C66C7E90044BC60C7E90444BC6120
:103F700007F15C00FEF76EFFEE68124BC7F8308069
:103F8000C7E9087BC7E90AA92146F3607466C6E958
:103F90000044B460C6E90444B46106F15C00082240
:103FA000FEF758FF0123C6E9086BC6E90AA9C6F85F
:103FB0003080AB61BDE8F88FF0E10008213E0008D9
:103FC000090001001200020095460008BD460008E5
:103FD000FD4600081D470008024B0349186800F021
:103FE000CFB900BFF0E10008993D0008836903B92B
:103FF00078E77047704700BF704700BF704700BF49
:10400000704700BF024B0349186800F093B900BF26
:10401000040C00201D3E0008024B0349186800F004
:1040200089B900BF040C00202D3E00089368002BC6
:1040300000F002812DE9F04FB1F90C309BB20C4633
:10404000190783B08246904635D522699AB313F09A
:104050000202D8F800603DD00027D4F828B0D4F888
:1040600020C0DFF8CC923D464D452B463A4628BF4E
:104070004B4661465046D5B1D847002840F3D28020
:10408000D8F808301B1A07442D1AC8F80830002B3E
:1040900000F0B780D4F820C0D4F828B04D452B46A6
:1040A0003A4628BF4B4661465046002DE4D1D6E93A
:1040B00000750836D8E721465046FFF757FD00281F
:1040C00040F03081B4F90C30D8F800609BB213F0A6
:1040D0000202C1D113F0010940F0B080A768206846
:1040E0004D46002D54D09A0540F1BC80AF42BB46EE
:1040F00000F2E78013F4906F2FD0D4E9041707EB98
:104100004707A0EB010B07EBD777681C7F105844DB
:10411000B8423A4684BF07463A465B0540F1E9801B
:1041200011465046FFF7CAF8002800F0F5805A46BD
:1041300021690190FEF7F4FDA289019B22F49062AF
:1041400042F08002A281A7EB0B0203EB0B00676138
:1041500023612060A2602F46AB465A46494600F0D4
:1041600007FAA2682368D21B5B442F46A260236033
:104170000025D8F80830DB1BB944C8F80830002BFC
:104180003FD0B4F90C30A76820689BB2002DAAD1AB
:10419000D6E900950836A4E70BF1080353E9026756
:1041A0009B460833002FF9D03A460A21304600F0EA
:1041B0008FF9002853D00130A0EB06094B46D4E913
:1041C00004122068BB4228BF3B46884203D9A56839
:1041D0001544AB4219DC9A427DDC1346A56A216A7C
:1041E00032465046A847051E1CDDB9EB05096BD0C9
:1041F0000120D8F808305B1B2E447F1BC8F808301C
:1042000013BB002003B0BDE8F08F31462A4600F012
:10421000AFF923682B44236021465046FFF7BCFDCD
:104220000028E2D0B4F90C3043F040034FF0FF30E7
:10423000A38103B0BDE8F08F00207047334691465C
:10424000104617464E469B46002FA5D00028B5D1F4
:104250003A460A21304600F03BF90028ABD17B1CDE
:104260009946ACE72369834215D36169A94212D804
:104270002E4BA76A9D4294BF2B466FF000434A46DF
:1042800093FBF1F3504601FB03F3216AB847071E85
:10429000C8DDED1B6DE7AF4228BF2F463A464946C1
:1042A00000F066F9A3682268DB1B3A44A360226031
:1042B000002BEED121465046FFF76EFD0028E8D0D6
:1042C000B0E72F46AB4648E721465046FFF764FD6E
:1042D00000288ED0A6E71A463146019300F048F92F
:1042E000019BA1682268C91A1A44A16022601D4678
:1042F0007BE7504600F0A8F9034600287FF423AF7F
:1043000021695046FEF784FFB4F90C300C2223F0EB
:104310008003CAF8002087E70C23CAF80030B4F9FC
:104320000C3081E74FF0FF306CE700BFFEFFFF7FEE
:1043300000FCFF7F2DE9F04110F148071BD08846B3
:104340000026D7E90154013D0FD4A389012B05F1C3
:10435000FF3506D9B4F90E300133204601D0C047ED
:1043600006436B1C04F16804EFD13F68002FE8D1CD
:104370003046BDE8F0813E463046BDE8F08100BFE2
:104380002DE9F84310F148071FD0884606464FF044
:104390000009D7E90154013D11D4A389012B05F18E
:1043A000FF3508D9B4F90E3001332146304602D02A
:1043B000C04749EA00096B1C04F16804EDD13F686D
:1043C000002FE6D14846BDE8F883B9464846BDE827
:1043D000F88300BF70B50C46B1F90E10002996B0F5
:1043E00016461D4613DB6A4609F0B7FE00280EDBB1
:1043F000019A02F47042A2F50052B2FA82F2520916
:104400004FF4806300202A60336016B070BDA3892A
:1044100000221B062A6004D540230020336016B01A
:1044200070BD4FF480630020336016B070BD00BFD4
:104430008A8992070B4606D501F1470201211A60CD
:10444000C3E90421704770B582B001AB6A460C46DF
:104450000646FFF7BFFF009905463046FEF72EFFE0
:10446000B4F90C3070B11649B162019A009920601C
:1044700043F08003A381C4E904018AB92B43A381DB
:1044800002B070BD9A05FBD423F0030304F1470288
:1044900043F002030121A3812260C4E90421EFE774
:1044A0003046B4F90E1009F064FE10B9B4F90C30BE
:1044B000E4E7A38923F0030343F001031BB2DDE724
:1044C000213E000800000000000000000000000085
:1044D00001F0FF01102A2BDB10F0070F08D010F8B5
:1044E000013B013A8B422DD010F0070F42B3F6D1B9
:1044F000F0B441EA012141EA014122F007047FF0D2
:1045000000070023F0E80256083C85EA010586EA28
:10451000010685FA47F5A3FA87F586FA47F6A5FA64
:1045200087F68EB9EED1F0BC01F0FF0102F0070270
:1045300032B110F8013B013A83EA010313B1F8D11B
:104540000020704701387047002D06BF35460338FC
:10455000073815F0010F07D1013015F4807F02BF35
:10456000013015F4C03F0130F0BC0138704700BF86
:104570008842F0B40DD98B1883420AD9841832B11D
:10458000224613F8014D02F8014D9942F9D1F0BCD1
:1045900070470F2A0ED80346541E002AF7D0013464
:1045A0000C44013B11F8012B03F8012FA142F9D172
:1045B000F0BC704740EA01039B073BD1A2F1100712
:1045C0003F0901F1200606EB071601F1100300F187
:1045D000100453F8105C44F8105C53F80C5C44F879
:1045E0000C5C53F8085C44F8085C53F8045C44F82D
:1045F000045C1033B34204F11004EAD17B1C1B01AC
:1046000012F00C0F194402F00F05034415D0043DBD
:10461000AD0803EB850C1C1F0E4656F8047B44F8CE
:10462000047F6445F9D10135AD002B44294402F0E3
:104630000302B1E7541E0346B1E72A46ACE700BFC8
:10464000704700BF704700BF09B3F8B51446CAB140
:1046500006460D4600F066F8A04202D32F463846C3
:10466000F8BD21463046FEF729FE07460028F6D061
:1046700022462946FEF754FB30462946FEF7C8FD80
:104680003846F8BD2746FEF7C3FD3846F8BD11464B
:10469000FEF714BE10B50C46B1F90E1009F045FD39
:1046A000002803DB636D0344636510BDA38923F415
:1046B0008053A38110BD00BF002070472DE9F04159
:1046C0001646B1F90C201F46D3050C460546B1F934
:1046D0000E1009D422F48052A2813B46324628466D
:1046E000BDE8F04109F028BD0022022309F022FDB7
:1046F000B4F90C20B4F90E10ECE700BF10B50C466D
:10470000B1F90E1009F016FDA389421C0EBF23F467
:10471000805343F480536065A38110BDB1F90E103E
:1047200009F00CBD51F8043C181F002BBCBF0B58FE
:10473000C01870472DE9F041214F00254FF00108C6
:1047400057F8044B24F00F0604F00F0408FA04F4A1
:10475000214601223046013508F0F1FDA4B2062DB4
:104760007483EDD1174D0024012655F8040B00F099
:104770000F01402206FA01F120F00F00013408F089
:10478000DEFD082CF1D140224FF480510E4808F094
:10479000D6FD4FF400510C48402208F0D0FD08F03F
:1047A00060F90A490A4803230B604FF47A734B609F
:1047B000BDE8F04140F6FF738B6008F054B900BFCC
:1047C00054E200086CE200080004004810110020C8
:1047D000B41F002038B501F00F01154D154B2A5CB0
:1047E0005B5C13445BB2032B04462B541DDD124A61
:1047F000135C00210133135400F006F901202B57FC
:10480000033308DA0C4A135D0121013B204613559E
:1048100000F0FAF801202B575A4202F0030203F08D
:10482000030358BF53422B5538BD0020E7E700BFB4
:10483000F0100020680C0020001100202DE9F84F36
:1048400006466A48DFF8B091DFF8B0A108F019F920
:104850004F464FF000085AF8044B654D24F00F0BFB
:10486000012304F00F0403FA04F4A4B24FF4B4607B
:10487000ABF8184006F0D6FE002128468C4650F8CA
:10488000042B22F00F0302F00F0E1B6923FA0EF324
:1048900003F001038B4001314CEA030308295FFA5E
:1048A00083FCECD1ABF81A403B7808F10108634572
:1048B00018BF87F800C0B8F1060F07F10107CAD189
:1048C0000021701E8E460E4610F801CF80F800E0E1
:1048D00000234F461C4617F8012B0A4102F0010243
:1048E000A24001341343062CDBB2F4D101316345FD
:1048F00018BF46F0010608290370E5D1A946002734
:104900004FF0010A59F8044B24F00F0804F00F048B
:104910000AFA04F4214601224046013708F00FFD4F
:10492000A4B2082FA8F81840ECD120224FF48051EF
:104930003048DFF8CCA0DFF8BC9008F000FD202262
:104940004FF400512B4808F0FAFCA8464FF0000B3A
:1049500058F8044B012324F00F0704F00F0403FA66
:1049600004F4A4B24FF434707C8306F05BFED9F8F3
:104970001020D9F81010090BC2F3003201F0020127
:1049800011431AF8012B02F00300884208D041EAD3
:104990008201C9B20AF8011C5FFA8BF0FFF71AFF17
:1049A0000BF1010BBBF1080F3C83D1D140224FF436
:1049B0008051104808F0C3FC40224FF400510D48CC
:1049C00008F0BDFC0024012755F8040B00F00F018E
:1049D000402207FA01F120F00F00013408F0AFFC8B
:1049E000082CF1D13046BDE8F88F00BFB41F00207D
:1049F0006CE20008000400480811002054E200089E
:104A0000F810002001F0FCBE38B50D4604F08EF918
:104A1000044670B10C4B188800F0F2F958B10A2125
:104A200025B1A92000F086FB2C4602E0AA2000F068
:104A300081FB204638BD1DB14E2000F08BFBF3E713
:104A40004B2000F087FBF4E724110020032302220F
:104A5000012100F049BF38B505460C4605F0E6FBDC
:104A6000B5F5804F1AD16379A47914F0F0040CD015
:104A700033B1032806D140F6060000F09BF800236E
:104A8000184638BD4FF48370F7E7002BF8D00328A1
:104A90000CBF40F6190040F21910EEE70123EFE7D2
:104AA00004280DD807290BD8052A09D830234343F9
:104AB000062000FB01311144024B33F8110070470E
:104AC00001207047BCE20008FFF7EABFA0F5807341
:104AD000B3F5F85F10B526D210F4805F00F40074CF
:104AE00000F4807300F4806100F400620DD0002BAC
:104AF0000CBF002010200CB140F0200009B140F0A4
:104B000040000AB140F0800010BD181C18BF012001
:104B10000CB140F0020009B140F00400002AF3D0CB
:104B200040F00800F0E70020EEE710B50C46FFF774
:104B3000CDFF2346BDE8104018470000A0F1E00378
:104B4000072B10B5044600D940B905492046FFF7A8
:104B5000ECFFE0B2BDE8104000F008BA0149F6E70A
:104B600065510008A955000810B50446C0B200F010
:104B700081FAA4F1E003072B00D92CB903492046A0
:104B8000BDE81040FFF7D1BF0149F8E777510008B1
:104B9000BB55000838B505460C46FFF7CFFF1CB9DA
:104BA0002846FFF7E1FF38BD0A20013C06F0BDFFB3
:104BB000A4B2F4E708B539280CBF50210021FFF753
:104BC000E9FF08BD0120704708B5FFF7FBFF08BDEE
:104BD0000120704708B5FFF73EFF08BD704708B5D4
:104BE000FFF7FCFF08BD000013B502AB03E90300AB
:104BF0000F4B1B78B3B99DF80530009873B16AB1BB
:104C000000F020FE04460146009800F0E9FD0099FE
:104C1000204602B0BDE8104001F0A0BC00F0FAFD53
:104C20000446F4E7009800F00DFE0099F1E700BF9C
:104C300021110020034610B400885C880A4640EA2F
:104C4000044099885DF8044BFFF7CEBF10B50121F1
:104C50000446FFF7EFFF2146FFF7B6FF10BD10B582
:104C600000210446FFF7E6FF2146FFF7B8FF10BD1D
:104C70000120704708B5FFF7FBFF08BD38B50546B2
:104C800000F0BCFC05F0E2F805F05AFE00220446F4
:104C90000321094802F01CFA2846FFF7EBFF2046E3
:104CA00005F053FEF92803D9BDE8384002F0BCB93D
:104CB0000A2006F03AFFF2E7780C002008B5012040
:104CC000FFF7DCFFBDE8084005F078BE08B500201E
:104CD000FFF7D4FFBDE8084005F075BE38B50121E7
:104CE0000546FFF7A7FF6B7904460BB103F07EFF83
:104CF00029462046FFF76EFF08B9002038BD294637
:104D0000204602F03FF90028F7D02946204605F05A
:104D100045F90028F1D02946204605F0E9FA002897
:104D2000EBD02946204604F0B5FC0028E5D0294602
:104D3000204604F089FC0028DFD02946204603F0F5
:104D40005BFF0028D9D06B7963B147F603439C42DF
:104D500030D00BD847F601439C422DD018D8B4F57B
:104D6000F84F12D02846FFF733FFC7E747F65B43FB
:104D70009C4227D047F65C439C4220D047F65A43DA
:104D80009C42EFD101F084F9ECE7FFF797FFB4E71D
:104D90000E4A1078C0F3000383F0010363F30000B0
:104DA00010F00104107003D0094802F0C7F8A4E71E
:104DB0000848FAE701F072F9FFF788FF9DE701F074
:104DC0005BF9CFE701F067F9CCE700BFF6110020EF
:104DD0009CE40008ADE4000808B505F0E0FC00F034
:104DE00052F802F021F9BDE8084003F0FBBC08B519
:104DF00000F04EF803F0ECFEBDE8084005F0D4BC2E
:104E0000030A002B16BF184600230823020918BF07
:104E10001046C0F38F0218BF043312B10233DBB265
:104E20001046C0F34F0008B10133DBB2184670479B
:104E3000030943EA0010C0B28300801000F0330081
:104E400003F0CC03034358005B1003F0550300F05C
:104E5000AA0018437047704701207047704738B563
:104E60000546FFF7F9FF044610B12846FFF7F6FFA5
:104E7000204638BD704710B50446FFF7ECFF2046CA
:104E8000FFF7EDFF10BD08B50020FFF7F4FF08BDE8
:104E900008B505F081FAFFF7EEFF08BD38B505F05B
:104EA0007BFA124B1A78824204461DD0187005F026
:104EB00013FD0F4D0F4B18602B78580711D5D907EC
:104EC0000FD50D4802F03AF82B78DA0709D52146BC
:104ED0000A4802F033F82B78DB0702D5084802F0C5
:104EE0002DF82046FFF7C7FF38BD00BF2011002076
:104EF000F61100201C110020BFE40008CAE40008DD
:104F0000E1F600081FB56C4684E803009DF8053003
:104F10000BB100F0A5FF0023ADF80E3094E80300BC
:104F200011F0FF0F0290ADF80C1002AC05D194E81F
:104F3000030000F0EFFE04B010BD2046FFF786FE30
:104F40000028F4D1F7E70379012B02D1008800F0A3
:104F50009BBC704708B529B104F032FDBDE808409C
:104F600004F010BE04F098FDF8E7000010B5044608
:104F700000287AD0822813D105F016FA810774D45C
:104F8000392005F06BFB01F003F84FF4487006F090
:104F9000CCFD392005F07CFBBDE8104000F0F8BFE7
:104FA00083280ED105F000FAC2075ED4532005F025
:104FB00055FB00F0EDFF4FF47A7006F0B6FD53207C
:104FC000E8E784280ED105F0EFF943074DD44720D8
:104FD00005F044FB00F0DCFF4FF47A7006F0A5FD0D
:104FE0004720D7E7031FDBB2A02B10D804F03AFA12
:104FF00000283AD1204605F0A9FA20B1204605F054
:1050000047FB00F0C5FF204605F028FBC4E700F190
:105010002003DBB2072B07D800F007040120A040D3
:10502000C0B200F0F7FEB7E700F15B03DBB2022B82
:1050300005D80E4ABDE81040D05C05F029BA00F151
:105040005803DBB21A2B06D8094ABDE8104032F8E3
:10505000130005F039BA3334E4B2122C05D804F049
:10506000AFFCBDE8104004F08DBD10BD06E50008A2
:10507000D0E4000808B5034600285AD082280FD192
:1050800005F092F9810754D5392005F0E7FA00F0D0
:105090007FFF392005F0FCFABDE8084000F078BF3A
:1050A00083280AD105F080F9C20742D5532005F0C4
:1050B000D5FA00F06DFF5320ECE784280AD105F003
:1050C00073F9430735D5472005F0C8FA00F060FFB3
:1050D0004720DFE7021FD2B2A02ADBD900F120026D
:1050E000D2B2072A07D800F0070301209840C0B2C7
:1050F00000F098FED0E700F15B02D2B2022A04D899
:105100000020BDE8084005F0C3B900F15802D2B252
:105110001A2A04D80020BDE8084005F0D5B9333379
:10512000DBB2122B05D804F0B7FCBDE8084004F050
:1051300029BD08BD38B505460C46FFF717FF1CB959
:105140002846FFF797FF38BD0A20013C06F0EDFC2A
:10515000A4B2F4E708B539280CBF50210021FFF7AD
:10516000E9FF08BD08B528B100F054FEBDE80840CD
:1051700000F00EBF08BD08B528B100F053FEBDE831
:10518000084000F005BF08BD2DE9F0478679447955
:1051900080460D4600F02EFE3609074608B3274626
:1051A000FCB1C5F3072303F0F002402A0CD0E9B2AA
:1051B00001F12002D2B2072A25D903F0E003202B07
:1051C00002D101291FD906B3AF4B5F7817F004074E
:1051D00007D0022000F014FF00F00CFE80F0010068
:1051E000C7B2C5F303330B2B43D8DFE813F010002D
:1051F000100063006300C300D90042004200DE00DB
:105200003C014F014F010027EBE73746E9E7C5F3C3
:105210000723C5F3032613F0F00F18BF36015FFA1A
:1052200085F994B166B109F12003DBB2072B304652
:1052300002D9B9F1000F05D100F0ECFD00F0A8FE95
:1052400048465CE000F0FCFDF8E74846FFF712FF37
:105250007EB109F12003DBB2072B304602D9B9F148
:10526000000F02D100F0DEFD01E000F0F1FD00F0E2
:105270008FFEC5F30335083D032D03D805F08CF8E8
:10528000FFF7F9FD002F00F05A8100F0ABFD10F0A0
:10529000010040F0548188F8050000F09DFD00F009
:1052A00035FA404600F062F900F096FDBDE8F0479F
:1052B00000F038BAC5F3072303F0F003C5F3032960
:1052C000202B5FFA85FA18BF4FEA0919BAF1000FCF
:1052D00007D0BAF1010F35D0002C3DD0E6B15046D1
:1052E0000DE0694B5B78590714D45CB1B9F1000F3C
:1052F00004D0484600F08EFD00F04AFE0020FFF783
:1053000035FEB6E72046FFF7B5FEB9F1000FB0D085
:105310004846A7E754B11EB94846FFF723FFA8E760
:10532000012EA6D1484600F0BBFDA2E7002EA0D179
:105330004846FFF720FF484600F0C0FD484600F011
:105340009BFD96E714B1052E93D8E5E7042E90D87F
:105350004846FFF710FF8CE7002EF9D0BAF1390F5D
:105360000CBF4FF44870012006F0DFFB5046FFF7FA
:1053700081FE7EE7C5F3812343B1012B7FF479AF32
:1053800064B1C5F3090005F09FF872E724B1C5F3D5
:10539000090005F07DF86CE72046FAE72046F2E7C1
:1053A0002146E8B2FFF7D6FD63E715F4407F29D127
:1053B000002C7FF45EAFEA06C5F3421148BF0F240C
:1053C0004FEA810148BF8C4005F00F0048BFE4431D
:1053D00000FA01F0C5F3812348BFA4B280B2022BCA
:1053E00040EA040008D00AD8012B02D000F068F986
:1053F0003FE700F05DF93CE700F06AF939E700F0BB
:1054000054F936E7C5F30122D3B20CB302F001031D
:10541000002B3FF42EAFC5F34210820015F01000B0
:105420001CBF0F20904005F00F0318BFC04303FAC4
:1054300002F3C5F3812218BF80B29BB2022A40EA70
:1054400003000AD00CD8012A04D000F08BF910E731
:105450005B08DDE700F07EF90BE700F08BF908E769
:1054600000F042F905E75FFA85F9C5F303261CB1A0
:10547000304600F04BF94FE74846FFF77CFE3046D8
:1054800000F050F9F5E600BFEC1C00205FFA85F94A
:10549000A9F1F003042B3DD8DFE803F003220E1539
:1054A0001E003CB1042E3FF6E4AEC5F3042000F02C
:1054B00045F9DEE6052EF6E7C5F30420002CDFD122
:1054C00000F024F9D5E624B1C5F3042000F017F963
:1054D000CFE600F011F9CCE61A4B5B785B0704D4F9
:1054E000C5F30420002CCBD0EAE74CB1C5F304246B
:1054F000204600F00BF90321204600F05FFDB8E6DE
:10550000012000F07DFD012E7FF6B3AE022000F0F9
:1055100077FDAEE62CB1002E7FF492AEC5F30420E9
:10552000CEE74EB1B9F1390F0CBF4FF448700120EE
:1055300006F0FBFA48461AE7C5F30420A0E7BDE8E9
:10554000F08700BFEC1C002038B501880446407984
:1055500000F0A6F9054600F015F900F0A5F8294677
:105560002046BDE83840FFF70FBE0000037910B5B4
:105570000446B3B1FFF7B2FB68B900F03BFC80B161
:10558000637973B1074B5B785B070AD50220BDE8EE
:10559000104000F035BD2046FFF7D6FF2046FFF74C
:1055A0005EFB10BDEC1C002008B528B100F048FCE3
:1055B000BDE8084000F0ECBC08BD08B528B100F01B
:1055C00047FCBDE8084000F0E3BC08BD08B500207A
:1055D00004F05EFF002004F077FF00F041FC00F0D3
:1055E000D7FC04F043FBBDE8084004F0CBBA08B593
:1055F00005F068F8BDE80840FFF7E8BF08B500F01F
:1056000019FCBDE80840FFF7F2BFC0F303320E32C9
:1056100002F00F02092A10B5C4B21BD8012101FA09
:1056200002F340F20332134203D113F010000DD104
:1056300010BDF02C10D004D8E72C8CBF0020012026
:10564000F6E7F42C14BF00200120F1E7E72C03D982
:10565000F12CF7E70020EBE70846E9E708B5037906
:1056600033B1008800F010F9BDE80840FFF7CDBF66
:10567000184608BD82B002AB03E9030002B07047D0
:1056800082B002AB03E9030002B07047704708B56F
:10569000FFF7FCFF08BD000008B5FFF7F8FF014B5E
:1056A000188008BD221100207047FFF7F5BF0000E9
:1056B000024B1B881843FFF7EFBF00BF22110020E9
:1056C000024B1B881840FFF7E7BF00BF22110020E4
:1056D000024B1B885840FFF7DFBF00BF221100209C
:1056E00008B5FFF7B3F908BD08B5FFF7F9FF014B9F
:1056F000188008BD241100200020FFF7F5BF01230A
:1057000003FA00F080B2FFF7EFBF0000012303FAB5
:1057100000F0034B1B88184380B2FFF7E5BF00BFC2
:1057200024110020012303FA00F0034B1B8823EA15
:105730000000FFF7D9BF00BF24110020012303FAA6
:1057400000F0034B1B88584080B2FFF7CDBF00BF6D
:1057500024110020024B1B881843FFF7C5BF00BF70
:1057600024110020024B1B881840FFF7BDBF00BF6B
:1057700024110020024B1B885840FFF7B5BF00BF23
:1057800024110020704701F0070330B5C908012437
:1057900002EB81029C40E4B2013A002112F8015F61
:1057A00020FA01F343F300036B40234001316B40C7
:1057B00004291370F2D130BD10B5002200F00704A7
:1057C000C00801EB800110468B5CE34003F001034D
:1057D000934001321843042AC0B2F5D110BD000035
:1057E00082B00B46ADF80400C0F3072007280CD8A0
:1057F0009DF80410052908D800EB4000044A01EB8D
:105800004001184602B0FFF7BEBF02B0704700BFAC
:105810002611002082B0ADF80400C0F3072007284D
:105820000BD89DF80430052B07D800EB4000044945
:1058300003EB400002B0FFF7BFBF002002B070478B
:10584000261100200E4B73B51E880E4BADF80400D8
:105850001B880F241E4346FA04F3DB07E5B206D487
:1058600014F1FF34F7D20025284602B070BD01992B
:10587000284600F084FE80B20128F1D0F4E700BF92
:10588000241100202211002007B5ADF80400019872
:10589000FFF7D8FF019903B05DF804EB00F06FBE8D
:1058A00013B5104BADF804101B782BB1019802B062
:1058B000BDE81040FFF7E8BF70B10198FFF7C2FFE5
:1058C000044601460198FFF78BFF0199204602B07C
:1058D000BDE8104000F053BE0198FFF79BFF04465F
:1058E000F3E700BF2111002010B5012404FA02F2F1
:1058F00004FA01F1114389B231EA000204FA03F318
:1059000006BF184380B2984310BD0000F8B50C4B99
:105910000C4E1C780C4D3378A34200D1F8BD05EB3A
:10592000C40335F834005F889A88D98840EA074074
:1059300042EA01410134FFF7A3FE04F00704EAE75D
:10594000871100208611002046110020064B10B45C
:1059500018885C889A88D98840EA044042EA014164
:105960005DF8044BFFF78CBE3E110020F8B51B4BD1
:105970009A7912F0F00F0AD15A7942B1184A1949AE
:1059800012780D781E885F88174CAA4200D1F8BDA6
:1059900011B204EBC1000079E0B134F83110B1422A
:1059A00018D104EBC2004179A1B94188C91B89B261
:1059B000C7290FD89979012262F307119971837968
:1059C00062F3071383710548FFF7D0FDBDE8F84087
:1059D000FFF79CBF013202F00702D6E73E1100201C
:1059E00087110020861100204611002070B50D4B54
:1059F0000D4A1B7815780D4CAB4202D1002210469F
:105A000070BD04EBC30256788E4206D114F83360A1
:105A1000864202D15279002AF1D1013303F0070303
:105A2000EAE700BF87110020861100204611002000
:105A30002DE9F04F89B002AB044601460622184614
:105A4000B34DFDF76DF92979227994F80580034665
:105A50002F46D1B9BAB1B8F1000F11D02046FFF7E7
:105A6000FDFD064660B1082221462846FDF758F99B
:105A70002846FFF768FAFFF779FFFFF767FF6EE048
:105A80002046FFF773FD012669E0B4F802A068889C
:105A90006E7994F800B094F80190AAEB000080B2FF
:105AA000002E00F0E980C72800F29E80002A56D020
:105AB000AB792A88208813F0F00F5FD190420FD184
:105AC000B8F1000F55D1012262F30713AB71FFF754
:105AD0003DFF2846FFF74AFDAB79A37100263EE063
