:020000040800F2
:1000000000040020BD020008BF020008BF02000873
:10001000BF020008BF020008BF020008BF020008BC
:10002000BF020008BF020008BF020008698F000875
:10003000BF020008BF020008BF020008BF0200089C
:10004000BF020008BF020008BF020008BF0200088C
:10005000BF020008BF020008BF020008BF0200087C
:10006000BF020008BF020008BF02000891A40008F8
:10007000A5A40008B9A40008CDA40008E1A40008C4
:10008000F5A4000809A50008BF020008BF02000887
:10009000BF020008BF020008BF020008BF0200083C
:1000A000339D0008379D00083B9D00083F9D0008D8
:1000B000D9AC000809A90008BF020008D1A60008B1
:1000C000DDA70008BF020008BF020008BF02000849
:1000D000BF020008BF020008BF020008BF020008FC
:1000E000BF020008BF020008BF020008BF020008EC
:1000F000BDAA0008BF020008BF020008BF02000836
:10010000BF020008BF020008BF020008BF020008CB
:10011000BF020008BF02000895AA0008A9AA0008AB
:100120001DA5000831A5000845A5000859A500082F
:100130006DA50008BF020008BF020008BF0200084A
:10014000BF020008BF020008BF020008BF0200088B
:10015000BF020008BF020008BF020008BF0200087B
:10016000BF020008BF020008BF0200082DAD000852
:10017000BF020008BF020008BF020008BF0200085B
:10018000BF020008BF020008BF020008BF0200084B
:10019000BF020008BF020008BF020008BF0200083B
:1001A00072B6374880F30888364880F309883648A5
:1001B0003649086040F20000CCF200004EF634717F
:1001C000CEF200010860BFF34F8FBFF36F8F40F294
:1001D0000000C0F2F0004EF68851CEF20001086037
:1001E000BFF34F8FBFF36F8F4FF00000E1EE100AA7
:1001F0004EF63C71CEF200010860062080F31488B0
:10020000BFF36F8F08F0F6FA08F0C8F84FF05530DA
:100210001F491B4A91423CBF41F8040BFAE71D49B4
:10022000184A91423CBF41F8040BFAE71A491B4AAD
:100230001B4B9A423EBF51F8040B42F8040BF8E7FF
:1002400000201849184A91423CBF41F8040BFAE7D4
:1002500008F0D4FA08F0CFFA144C154DAC4203DA8A
:1002600054F8041B8847F9E704F026F8114C124DA6
:10027000AC4203DA54F8041B8847F9E708F0BCBA2B
:1002800000040020000C00200000000808ED00E041
:100290000000002000040020A8CC0008000C002072
:1002A000D0100020D0100020B01F0020A0010008B6
:1002B000A0010008A0010008A001000870E700F0FC
:1002C00000F8FEE72DE9F04F2DED108AC1F80CD0B3
:1002D000C3689D46BDEC108ABDE8F08F002383F310
:1002E00011882846A047002008F03CFDFEE708F0F2
:1002F00095FC00DFFEE70000F8B52DED028B57EC12
:10030000106B55EC114B00F0C7F8614BB0EE408A12
:10031000F0EE608A93F9003001332AD022462B4652
:100320002046294601F084FC18BB32463B46304645
:10033000394601F07DFC002844D1002200233046DC
:10034000394601F043FCD8B100220023204629465B
:1003500001F03CFC00283DD145EC104B00F0DEFEE6
:1003600038B1204629460022002301F039FC00283C
:100370005BD1B0EE480AF0EE680ABDEC028BF8BD26
:10038000B0EE480AF0EE680A00F0C8FE58B300224A
:10039000002351EC180B01F019FC0028E9D047ECC0
:1003A000106B00F0BBFE0028E3D045EC104B00F0D2
:1003B000B5FE0028DDD001F023FE222303609FED6F
:1003C0002C8BD6E7204629460022002301F0FEFBB5
:1003D0000028CED09FED288BB0EE480AF0EE680AD8
:1003E000BDEC028BF8BD47EC106B00F097FE0028C7
:1003F000CDD045EC104B00F091FE0028C7D053EC57
:10040000182B18EE100A194601F012FC18BB01F067
:10041000F7FD22230360002200233046394601F015
:10042000DFFB48B99FED168BA3E701F0E9FD21231F
:1004300003609FED158B9CE745EC104B00F080FEB0
:1004400022462B4651EC100B01F0C0FB0028E9D1ED
:100450009FED0D8B8DE701F0D3FD002200232121BC
:1004600001601046194601F073FA41EC180B80E761
:100470000000000000000000000000000000F03F4D
:10048000000000000000F07F000000000000F0FF0E
:10049000000C0020000000002DE9F04F51EC110B82
:1004A00021F0004555EA000393B03DD059EC108B84
:1004B000694B29F000449C424E4610EE10AA2CDCF9
:1004C0000F4611EE10CA36D09D4226DC624B9D428B
:1004D00020D0002ECDE9000138DB4FF0000BBCF13D
:1004E000000F4ED15C4B9D4200F094805B4B9D42CF
:1004F00000F0A180B7F1804F00F09E84584B9F42DE
:100500003FD1002E3DDB49EC108B13B0BDE8F04F1E
:1005100000F02EBDBCF1000FDBD004F1404404F527
:10052000801454EA0A030BD14C49002041EC100B13
:1005300013B0BDE8F08FB8F1000F01D1A542C5DDC1
:10054000484813B0BDE8F04F00F0F2BD464B9D4265
:1005500077DCA3F154739D420EDD2B15A3F2FF331C
:10056000142B40F37184C3F134032CFA03F202FA22
:1005700003F3634500F0B7844FF0000BBCF1000FAC
:10058000B4D049EC108B00F0BFFD51EC100BBAF168
:10059000000F22D124B1314B26F040429A421CD1A7
:1005A000002F05DA02460B4600202C4901F0D0F955
:1005B000002EBBDA04F1404404F5801454EA0B0326
:1005C00040F0648402460B461046194600F0DEFEF9
:1005D00002460B4601F0BCF9A8E7F30F03F1FF3A1E
:1005E0005BEA0A0330D0214B9D4243DD03F10473E3
:1005F0009D4240F3AF831E4B9C4240F33B83002F50
:1006000040F33B8312A3D3E900231046194601F0BF
:1006100075F88BE704F1404303F5801353EA0A03AE
:1006200082D0134B9C4240F35383002FC0F22583AA
:10063000DDE900017AE7002FC0F2F6834046494623
:1006400074E74FF0020B4AE742464B46BCE700BF57
:100650009C7500883CE4377E0000F07F0000F03F8E
:100660000000E03F9CCC0008FFFF3F430000E0415A
:10067000FFFFEF3FD24B3340002B40F0D3830022EB
:10068000D04B01F03BF86FF034060C462315CE4AF0
:10069000C4F31304A3F2FF3344F07F559E19944230
:1006A0000D9645F4401540F3B083C84B9C4240F38F
:1006B000F6839FEDAD7B8DED087B8DED107B9FED7F
:1006C000AC7B8DED067B01360D96A5F580154FF0C0
:1006D0000008DDE906232946064600F057FEDDE95D
:1006E0000623CDE90A013046294600F051FE0246B4
:1006F0000B460020B64901F02BF903460C46CDE924
:100700000E3402460B46DDE90A0100F0F7FF6B10DC
:1007100043F0005303F500230A462F46014603EB3E
:1007200008050023CDE902120293DDE902890024C5
:10073000CDE904122B4622464046494600F0DEFF32
:1007400002460B46DDE90A0100F020FEDDE9062342
:10075000CDE90A012046294600F018FE02460B4664
:100760003046394600F012FE42464B4600F0C6FFC6
:1007700002460B46DDE90A0100F008FEDDE90E2322
:1007800000F0BCFFDDE90445CDE9060122462B4619
:100790002046294600F0B2FF77A3D3E900230446A0
:1007A0000D4600F0ABFF76A3D3E9002300F0F0FD87
:1007B00022462B4600F0A2FF73A3D3E9002300F0EA
:1007C000E7FD22462B4600F099FF71A3D3E90023F1
:1007D00000F0DEFD22462B4600F090FF6EA3D3E929
:1007E000002300F0D5FD22462B4600F087FF6CA3C6
:1007F000D3E9002300F0CCFD224606460F462B46E7
:100800002046294600F07AFF02460B46304639461C
:1008100000F074FF424604460D464B46DDE90401F4
:1008200000F0B6FDDDE9062300F068FF22462B4606
:1008300000F0AEFD424606460F464B46404649464E
:1008400000F05CFF0022634BCDE90A0100F0A0FD3F
:1008500032463B4600F09CFD02980D460446224677
:100860002B464046494600F049FF00228046894613
:10087000584B2046294600F089FDDDE90A2300F0A7
:1008800085FD02460B463046394600F07FFDDDE926
:10089000042300F033FF224606460F462B46DDE9CF
:1008A000060100F02BFF02460B463046394600F0A9
:1008B0006FFD06460F4602460B464046494600F08D
:1008C00067FD029838A3D3E9002304460D4600F0E3
:1008D00015FF4246CDE904014B462046294600F06B
:1008E00055FD02460B463046394600F04FFD30A319
:1008F000D3E9002300F002FF2FA3D3E9002306462B
:100900000F462046294600F0F9FE02460B463046C7
:10091000394600F03DFDDDE9102300F039FD0446C5
:100920000D980D4600F080FE224606460F462B46E7
:10093000DDE9040100F02CFDDDE9082300F028FDCD
:1009400032463B4600F024FD029832463B46804644
:10095000894600F01BFDDDE9082300F017FDDDE905
:10096000042339E0AFF30080000000000000000025
:10097000000000000000F03FEF4E454A287ECA3FCD
:1009800065DBC9934A86CD3F01411DA96074D13F03
:100990004D268F515555D53FFFAB6FDBB66DDB3F15
:1009A000033333333333E33F000000E009C7EE3F46
:1009B000FD033ADC09C7EE3FF5015B14E02F3EBEB4
:1009C0000000F07F000040438E98030079B60B00D2
:1009D0000000F03F0000084000F0D8FC0B46024643
:1009E0002946204600F0D2FC0BF1FF3353EA0A03FC
:1009F000CDE9020140F067819FEDB97B8DED047B6D
:100A0000DDE9002300261046194632461F4600F055
:100A1000BDFC42464B4600F071FEDDE900238246F4
:100A20008B46DDE9020100F069FE02460B465046A6
:100A3000594600F0ADFC32468B4682463B46404666
:100A40004946CDE900AB00F059FE0B460246804610
:100A500089465046594600F09BFCB94B99420446E2
:100A60000D468B4640F30C8101F13F4303F5E00353
:100A7000034340F0FD819CA3D3E90023DDE900019D
:100A800000F086FC424606460F464B462046294665
:100A900000F07CFC02460B463046394601F0BEF8B9
:100AA000002840F0E581CBF30A534FF48012A3F203
:100AB000FE3342FA03F35B44C3F30A52A14DA2F2A0
:100AC000FF321541C3F3130423EA05010020C2F1EC
:100AD000140A44F48014BBF1000F02460B4644FA9A
:100AE0000AFA40464946B8BFCAF1000A00F04EFC77
:100AF000804689464246DDE900014B4600F048FC4D
:100B00004FEA0A5B0D46002479A3D3E9002320466F
:100B1000294600F0F3FD424606460F464B46204666
:100B2000294600F033FC02460B46DDE9000100F0E7
:100B30002DFC71A3D3E9002300F0E0FD70A3D3E9FD
:100B40000023804689462046294600F0D7FD02460C
:100B50000B464046494600F01BFC8046894602464B
:100B60000B463046394600F013FC32463B460446FD
:100B70000D4600F00BFC02460B464046494600F08D
:100B800005FC2246804689462B462046294600F031
:100B9000B5FD5DA3D3E9002306460F4600F0AEFD88
:100BA0005BA3D3E9002300F0F1FB32463B4600F0A3
:100BB000A5FD59A3D3E9002300F0EAFB32463B46EA
:100BC00000F09CFD56A3D3E9002300F0DFFB324682
:100BD0003B4600F093FD54A3D3E9002300F0D8FB7B
:100BE00032463B4600F08AFD02460B462046294627
:100BF00000F0CCFB06460F4602460B46204629462F
:100C000000F07CFD0022CDE900014FF0804330462A
:100C1000394600F0BBFB02460B46DDE9000100F05F
:100C200097FE424606460F464B462046294600F0B0
:100C300065FD42464B4600F0ABFB02460B46304694
:100C4000394600F0A3FB22462B4600F09FFB0246EC
:100C50000B4600203C4900F099FB8B44BBF5801FFC
:100C600002460B46C0F237815946DDE9042300F005
:100C700045FD5BE4002FFFF6C5AC0020002155E4E4
:100C8000DFF8CCC021F00043634540F3EB802F4BED
:100C90000B4403430AD142464B4600F077FBDDE9A3
:100CA000002300F0B1FF00283FF4FDAEDDE90401B0
:100CB0001FA3D3E9002300F021FD1DA3D3E90023E6
:100CC00000F01CFD32E49FED1C7B8DED047B97E66C
:100CD000002FD2DADDE90034184604F1004125E4A2
:100CE000000000000000F0BFFE822B654715973C16
:100CF00000000000432EE63FEF39FAFE422EE63FA9
:100D0000396CA80C615C20BED0A4BE726937663E07
:100D1000F16BD2C541BDBB3E2CDE25AF6A56113FFB
:100D200093BDBE166CC1663F3E5555555555C53FE2
:100D300059F3F8C21F6EA501000000000000F03F4B
:100D4000FFFF8F40FFFF0F000000F03F00346F3FB8
:100D5000FFCB9040824B9C428CDD824B9C423FF704
:100D60004EAC00227F4B00F011FB69A3D3E90023B6
:100D700004460D4600F0C2FC67A3D3E900230646F3
:100D80000F462046294600F0B9FC002280468946DD
:100D9000754B2046294600F0B1FC02460B4660A187
:100DA000D1E9000100F0F2FA22462B4600F0A6FC41
:100DB00002460B4600206D4900F0E8FA2246CDE9D4
:100DC00002012B462046294600F098FC02460B46BD
:100DD000DDE9020100F092FC53A3D3E9002300F007
:100DE0008DFC02460B464046494600F0CFFA0246CB
:100DF0000B4604460D463046394600F0C9FA00203D
:100E00008046894632463B46E6E59FED497B8DEDBF
:100E1000087B8DED107B9FED487B4FF000088DED3A
:100E2000067B56E4002631E442464B4600204D49FD
:100E300000F08EFDFFF77ABB42464B4640464946DE
:100E400000F05CFCFFF772BBBCF1000F36D1C3F1C0
:100E5000140345FA03F202FA03F3AB424DD0E34622
:100E6000FFF744BB414A93424DDCB346B2464AE6E3
:100E7000DDE9040132A3D3E9002300F03FFC30A3F5
:100E8000D3E9002300F03AFCFFF750BBBBF1010FA0
:100E90007FF44CAB01F100431946FFF747BB9FEDD0
:100EA0002A7B8DED087B9FED2A7B8DED107B9FEDDE
:100EB0002A7B4FF480288DED067B0AE449EC108BE9
:100EC00000F022F951EC100BBAF1000F7FF4BCAB2B
:100ED000D346FFF75FBB504643EC102B00F0C0F940
:100EE00051EC100BC1E602F00102C2F1020BBCF1A1
:100EF000000F3FF4FBAAFFF744BB02F00102C2F16E
:100F0000020BFFF7F3BA1B15CFE500BFAFF300806C
:100F1000000000604715F73F44DF5DF80BAE543E1C
:100F2000555555555555D53FFE822B654715F73F0D
:100F30000000000000000000000000000000F03F82
:100F40009C7500883CE4377E0000004003B8E23F17
:100F500006D0CF43EBFD4C3E000000000000F83F00
:100F6000FEFFEF3F0000F03F0000D03F0000E03FF9
:100F70002DE9F041634955EC104BA94300F09F80E7
:100F8000002D2B4610EE102A52DD5FEA255E00F0A0
:100F9000B180C3F31303AEF2FF3E43F48013D10FCD
:100FA0001EF0010F01EB43034FEA420403D0E40FAC
:100FB00004EB430394004FF0000C4FEA6E0E6646BC
:100FC00016254FF40012B118994202DC5B1A8E18F4
:100FD00094445B00013D03EBD4734FEA52024FEAA5
:100FE0004404F0D12F4620204FF0004209E041D0C8
:100FF000E10F01384FEA520201EB43034FEA440488
:1010000041D0B34202EB0501F1DD002901EB0205FD
:1010100009DBB0469B1BA14288BF03F1FF33641A72
:1010200017444646E4E7002DF3DB06F10108F1E73B
:1010300025F00041214339D0002D50D1D40A153B71
:1010400052052146002CF9D0E50256D4002000E0DC
:1010500028464900CC0200F10105F9D50C4611469D
:10106000AA40C5F1200521FA05F5A3EB000E45EADB
:1010700004038EE7A142BBD8002901EB0205D2DBB5
:1010800098460023CBE7234312D178084FEA6C013E
:1010900001F17F511CF0010F01F5001118BF40F064
:1010A000004001EB0E53024643EC102BBDE8F081EB
:1010B0007B1C16BF781C0CF1010C4008E6E710EE13
:1010C000102A2B4610EE100A294600F017FB224684
:1010D0002B4600F05DF941EC100BBDE8F081204695
:1010E000294600F053F902460B4600F031FC41EC72
:1010F000100BDBE729467346A8E7114620254FF081
:10110000FF30B0E70000F07F51EC100B10EE102A1A
:1011100021F0004343EC102B704700BF10EE903AD3
:1011200043F0004000F58010C00F70470000000041
:101130009FED010B704700BF000000000000F87F2A
:10114000F0B553EC102BC3F30A56A6F2FF30132868
:1011500083B019464FEAD37410EE105A37DC0028DA
:101160002DDB3D4E064103EA060717432BD07608D8
:1011700033401D430CD04FF48023132821EA060688
:1011800043FA00F141EA06010CBF4FF0004500258B
:10119000324800EBC4042A46D4E900450B462046F9
:1011A000294600F0F5F8CDE9000122462B46DDE99D
:1011B000000100F0EBF841EC100B03B0F0BD23F0A0
:1011C0000040104322D143EC102B03B0F0BD332874
:1011D00009DDB0F5806FF6D110EE100A00F0D8F8F6
:1011E00041EC100BF1E7A6F213464FF0FF30F04050
:1011F0000242E8D040080242CAD04FF0804325EABC
:10120000000043FA06F640EA0605C1E7C3F31300FF
:10121000104345420543114800EBC400D0E9006784
:10122000590C2D0B490405F4002545EA010330460D
:10123000394600F0ADF8CDE900013B463246DDE924
:10124000000100F0A3F821F0004343EAC47141EC2F
:10125000100B03B0F0BD00BFFFFF0F0098B30008F4
:1012600038B553EC102BC3F30A511C46054681BB1D
:1012700010EE101A23F00044214329D01946002211
:101280003D4B3E4C10EE100A00F038FAA5420246E3
:101290000B4616DB0C46C1F30A513639294440F29D
:1012A000FE70814221DC002947DC11F1350F34DA70
:1012B0004CF250318D4218DC002B27A1D1E90001FE
:1012C00044DB25A3D3E9002300F018FA41EC100B0E
:1012D00038BD40F2FF708142E0D110EE100A19468D
:1012E00000F056F841EC100B38BD002B1CA1D1E9E1
:1012F000000107DB1AA3D3E9002300F0FFF941EC5A
:10130000100B38BD18A1D1E9000115A3D3E90023C2
:1013100000F0F4F941EC100BF3E724F0FF4424F45F
:10132000E004363144EA0153104619460022144BBA
:1013300000F0E4F941EC100B38BD24F0FF4424F434
:10134000E00444EA015343EC102B38BD08A1D1E975
:101350000001B6E7AFF3008059F3F8C21F6EA50194
:101360009C7500883CE4377E9C7500883CE437FE21
:1013700059F3F8C21F6EA58100005043B03CFFFF37
:101380000000903C81F0004102E000BF83F0004388
:1013900030B54FEA41044FEA430594EA050F08BF10
:1013A00090EA020F1FBF54EA000C55EA020C7FEAD4
:1013B000645C7FEA655C00F0E2804FEA5454D4EB51
:1013C0005555B8BF6D420CDD2C4480EA020281EA1B
:1013D000030382EA000083EA010180EA020281EA53
:1013E0000303362D88BF30BD11F0004F4FEA0131A5
:1013F0004FF4801C4CEA113102D0404261EB4101B4
:1014000013F0004F4FEA03334CEA133302D0524239
:1014100063EB430394EA050F00F0A780A4F10104F5
:10142000D5F1200E0DDB02FA0EFC22FA05F280182F
:1014300041F1000103FA0EF2801843FA05F3594115
:101440000EE0A5F120050EF1200E012A03FA0EFC94
:1014500028BF4CF0020C43FA05F3C01851EBE371BE
:1014600001F0004507D54FF0000EDCF1000C7EEBDB
:1014700000006EEB0101B1F5801F1BD3B1F5001F19
:101480000CD349085FEA30004FEA3C0C04F1010438
:101490004FEA445212F5800F80F09A80BCF1004F61
:1014A00008BF5FEA500C50F1000041EB045141EAE3
:1014B000050130BD5FEA4C0C404141EB010111F4E4
:1014C000801FA4F10104E9D191F0000F04BF01468F
:1014D0000020B1FA81F308BF2033A3F10B03B3F16D
:1014E00020020CDA0C3208DD02F1140CC2F10C02FD
:1014F00001FA0CF021FA02F10CE002F11402D8BF5B
:10150000C2F1200C01FA02F120FA0CFCDCBF41EA26
:101510000C019040E41AA2BF01EB0451294330BDF5
:101520006FEA04041F3C1CDA0C340EDC04F11404D2
:10153000C4F1200220FA04F001FA02F340EA0300A9
:1015400021FA04F345EA030130BDC4F10C04C4F1EF
:10155000200220FA02F001FA04F340EA03002946CF
:1015600030BD21FA04F0294630BD94F0000F83F419
:10157000801306BF81F480110134013D4EE77FEAFC
:10158000645C18BF7FEA655C29D094EA050F08BF48
:1015900090EA020F05D054EA000C04BF1946104629
:1015A00030BD91EA030F1EBF0021002030BD5FEA6D
:1015B000545C05D14000494128BF41F0004130BD95
:1015C00014F580043CBF01F5801130BD01F00045E9
:1015D00045F0FE4141F470014FF0000030BD7FEA5C
:1015E000645C1ABF194610467FEA655C1CBF0B4657
:1015F000024650EA013406BF52EA033591EA030F6E
:1016000041F4002130BD00BF90F0000F04BF002165
:10161000704730B54FF4806404F132044FF0000598
:101620004FF0000150E700BF90F0000F04BF002111
:10163000704730B54FF4806404F1320410F0004577
:1016400048BF40424FF000013EE700BF42004FEA72
:10165000E2014FEA31014FEA02701FBF12F07F43EF
:1016600093F07F4F81F06051704732F07F4208BFA6
:10167000704793F07F4F04BF41F40021704730B5AD
:101680004FF4607401F0004521F000411CE700BFF9
:1016900050EA010208BF704730B54FF000050AE07C
:1016A00050EA010208BF704730B511F0004502D57D
:1016B000404261EB41014FF4806404F132045FEA7F
:1016C000915C3FF4D8AE4FF003025FEADC0C18BF28
:1016D00003325FEADC0C18BF033202EBDC02C2F11A
:1016E000200300FA03FC20FA02F001FA03FE40EAAC
:1016F0000E0021FA02F11444BDE600BF70B54FF0B0
:10170000FF0C4CF4E06C1CEA11541DBF1CEA13558D
:1017100094EA0C0F95EA0C0F00F0DEF82C4481EAF5
:10172000030621EA4C5123EA4C5350EA013518BF15
:1017300052EA033541F4801143F4801338D0A0FB02
:1017400002CE4FF00005E1FB02E506F00042E0FBAF
:1017500003E54FF00006E1FB03569CF0000F18BFB5
:101760004EF0010EA4F1FF04B6F5007F64F540745D
:1017700004D25FEA4E0E6D4146EB060642EAC621F0
:1017800041EA55514FEAC52040EA5E504FEACE2E5D
:10179000B4F1FD0C88BFBCF5E06F1ED8BEF1004F60
:1017A00008BF5FEA500E50F1000041EB045170BDDC
:1017B00006F0004646EA010140EA020081EA030120
:1017C000B4EB5C04C2BFD4EB0C0541EA045170BD1C
:1017D00041F480114FF0000E013C00F3AB8014F196
:1017E000360FDEBF002001F0004170BDC4F10004DF
:1017F000203C35DA0C341BDC04F11404C4F1200560
:1018000000FA05F320FA04F001FA05F240EA0200BA
:1018100001F0004221F0004110EBD37021FA04F6F0
:1018200042EB06015EEA430E08BF20EAD37070BDAA
:10183000C4F10C04C4F1200500FA04F320FA05F009
:1018400001FA04F240EA020001F0004110EBD3700B
:1018500041F100015EEA430E08BF20EAD37070BD7B
:10186000C4F1200500FA05F24EEA020E20FA04F354
:1018700001FA05F243EA020321FA04F001F0004103
:1018800021FA04F220EA020000EBD3705EEA430E74
:1018900008BF20EAD37070BD94F0000F0FD101F0A3
:1018A0000046400041EB010111F4801F08BF013CDC
:1018B000F7D041EA060195F0000F18BF704703F01A
:1018C0000046520043EB030313F4801F08BF013DA1
:1018D000F7D043EA0603704794EA0C0F0CEA13555D
:1018E00018BF95EA0C0F0CD050EA410618BF52EA17
:1018F0004306D1D181EA030101F000414FF000001D
:1019000070BD50EA410606BF1046194652EA43062A
:1019100019D094EA0C0F02D150EA013613D195EA9E
:101920000C0F05D152EA03361CBF104619460AD1E6
:1019300081EA030101F0004141F0FE4141F47001F0
:101940004FF0000070BD41F0FE4141F4780170BDE0
:1019500070B54FF0FF0C4CF4E06C1CEA11541DBF45
:101960001CEA135594EA0C0F95EA0C0F00F0A7F847
:10197000A4EB050481EA030E52EA03354FEA013174
:1019800000F088804FEA03334FF0805545EA131387
:1019900043EA12634FEA022245EA111545EA10654F
:1019A0004FEA00260EF000419D4208BF964244F1E6
:1019B000FD0404F5407402D25B084FEA3202B61A05
:1019C00065EB03055B084FEA32024FF480104FF4D9
:1019D000002CB6EB020E75EB030E22BFB61A75464D
:1019E00040EA0C005B084FEA3202B6EB020E75EBE0
:1019F000030E22BFB61A754640EA5C005B084FEA48
:101A00003202B6EB020E75EB030E22BFB61A754614
:101A100040EA9C005B084FEA3202B6EB020E75EB1F
:101A2000030E22BFB61A754640EADC0055EA060EE0
:101A300018D04FEA051545EA16754FEA06164FEA23
:101A4000C30343EA52734FEAC2025FEA1C1CC0D1CF
:101A500011F4801F0BD141EA00014FF000004FF05C
:101A6000004CB6E711F4801F04BF01430020B4F11D
:101A7000FD0C88BFBCF5E06F3FF6AFAEB5EB030CD5
:101A800004BFB6EB020C5FEA500C50F1000041EBD2
:101A9000045170BD0EF0004E4EEA113114EB5C049F
:101AA000C2BFD4EB0C0541EA045170BD41F4801172
:101AB0004FF0000E013C90E645EA060E8DE60CEA7A
:101AC000135594EA0C0F08BF95EA0C0F3FF43BAF97
:101AD00094EA0C0F0AD150EA01347FF434AF95EA4E
:101AE0000C0F7FF425AF104619462CE795EA0C0F32
:101AF00006D152EA03353FF4FDAE1046194622E7FF
:101B000050EA410618BF52EA43067FF4C5AE50EAD8
:101B100041047FF40DAF52EA43057FF4EBAE12E7C8
:101B20004FF0FF3C06E000BF4FF0010C02E000BFA9
:101B30004FF0010C4DF804CD4FEA410C7FEA6C5C8C
:101B40004FEA430C18BF7FEA6C5C1BD001B050EA2F
:101B5000410C0CBF52EA430C91EA030F02BF90EA1A
:101B6000020F0020704710F1000F91EA030F58BFD9
:101B7000994208BF90422CBFD8176FEAE37040F03B
:101B8000010070474FEA410C7FEA6C5C02D150EAD9
:101B9000013C07D14FEA430C7FEA6C5CD6D152EA94
:101BA000033CD3D05DF8040B704700BF8446104659
:101BB00062468C461946634600E000BF01B5FFF758
:101BC000B7FF002848BF10F1000F01BD4DF808ED28
:101BD000FFF7F4FF0CBF012000205DF808FB00BFF9
:101BE0004DF808EDFFF7EAFF34BF012000205DF853
:101BF00008FB00BF4DF808EDFFF7E0FF94BF0120A0
:101C000000205DF808FB00BF4DF808EDFFF7CEFFA0
:101C100094BF012000205DF808FB00BF4DF808EDDF
:101C2000FFF7C4FF34BF012000205DF808FB00BFB0
:101C30004FEA410C7FEA6C5C02D150EA013C0AD1C8
:101C40004FEA430C7FEA6C5C02D152EA033C02D1BA
:101C50004FF0000070474FF0010070474FEA41021B
:101C6000B2F1E04324BFB3F5001CDCF1FE5C0DD9FA
:101C700001F0004C4FEAC0024CEA5070B2F1004F44
:101C800040EB830008BF20F00100704711F0804F47
:101C900021D113F13872BCBF01F00040704741F40C
:101CA00080114FEA5252C2F11802C2F1200C10FA10
:101CB0000CF320FA02F018BF40F001004FEAC123F4
:101CC0004FEAD32303FA0CFC40EA0C0023FA02F398
:101CD0004FEA4303CCE77FEA625307D150EA01336E
:101CE0001EBF4FF0FE4040F44000704701F000403E
:101CF00040F0FE4040F40000704700BF53B94AB9BD
:101D0000002908BF00281CBF4FF0FF314FF0FF3003
:101D100000F074B9ADF1080C6DE904CE00F006F8DE
:101D2000DDF804E0DDE9022304B070472DE9F04757
:101D3000089E04468846002B40F085808A4215465E
:101D400048D9B2FA82F24AB1C2F1200701FA02F38D
:101D500020FA07F7954047EA030894404FEA154EEA
:101D6000230CB8FBFEF71FFA85FC0EFB178843EA2D
:101D7000084307FB0CF1994209D9EB1807F1FF3032
:101D800080F0E380994240F2E080023F2B445B1AEE
:101D9000A4B2B3FBFEF00EFB103344EA034400FB95
:101DA0000CFCA44509D92C1900F1FF3380F0CB803D
:101DB000A44540F2C88002382C4440EA0740A4EB16
:101DC0000C0400271EB1D4400023C6E90043394665
:101DD000BDE8F087002A53D0B2FA82F2002A40F020
:101DE000B680491B4FEA154E1FFA85F80127B1FB53
:101DF000FEFC230C0EFB1C1143EA014308FB0CF113
:101E0000994207D9EB180CF1FF3002D2994200F247
:101E1000EC808446591AA3B2B1FBFEF00EFB1014FD
:101E200043EA044408FB00F8A04507D92C1900F147
:101E3000FF3302D2A04500F2DC801846A4EB080470
:101E400040EA0C40BEE78B4208D9002E78D000272C
:101E5000C6E9000138463946BDE8F087B3FA83F792
:101E60007FB98B4202D3824200F2BD80841A61EBBB
:101E7000030301209846002EA9D0C6E90048A6E732
:101E8000FFDEC7F12005BB4022FA05FC4CEA030C3B
:101E900001FA07F420FA05F821FA05F34FEA1C4E7F
:101EA00048EA0404B3FBFEF9210C0EFB19331FFAB8
:101EB0008CF841EA034309FB08FA9A4502FA07F253
:101EC00000FA07F10BD91CEB030309F1FF3080F096
:101ED00088809A4540F28580A9F102096344A3EB0A
:101EE0000A03A4B2B3FBFEF00EFB103344EA034432
:101EF00000FB08F8A04508D91CEB040400F1FF33EF
:101F00006BD2A04569D90238644440EA0940A4EB89
:101F10000804A0FB02894C45C6464B4654D351D019
:101F2000002E69D0B1EB0E0264EB030404FA05F550
:101F300022FA07F3FC401D43C6E90054002746E798
:101F40003746304643E7184637E707461FE7C2F1F2
:101F5000200320FA03F7954001FA02F021FA03F377
:101F60004FEA154E3843010CB3FBFEF71FFA85F814
:101F70000EFB173341EA034107FB08F38B4204FAD7
:101F800002F407D9691807F1FF3C28D28B4226D901
:101F9000023F2944CB1A81B2B3FBFEF00EFB103393
:101FA00041EA034100FB08F38B4207D9691800F1AD
:101FB000FF3C10D28B420ED902382944C91A40EA9C
:101FC000074714E74145ABD2B8EB020E69EB0C02B0
:101FD00001381346A4E76046F0E7184695E76746E0
:101FE000D8E781467BE7384645E7ACF1020C2B4445
:101FF00010E702382C4421E73746E8E6704700BF77
:10200000014B1868704700BF040C0020032A70B40D
:1020100012D940EA0105AD0704460B4620D1194606
:10202000204653F8045B54F8046BAE4218D1043ACE
:10203000032A20461946F2D8541E72B103780A7852
:102040009A4208BF241806D00CE010F8013F11F89E
:10205000012F934206D1A042F7D1002070BC7047F7
:10206000541EEBE7981A70BC704700BF844641EAE3
:10207000000313F003036DD1403A41D351F8043B00
:1020800040F8043B51F8043B40F8043B51F8043B52
:1020900040F8043B51F8043B40F8043B51F8043B42
:1020A00040F8043B51F8043B40F8043B51F8043B32
:1020B00040F8043B51F8043B40F8043B51F8043B22
:1020C00040F8043B51F8043B40F8043B51F8043B12
:1020D00040F8043B51F8043B40F8043B51F8043B02
:1020E00040F8043B51F8043B40F8043B51F8043BF2
:1020F00040F8043B51F8043B40F8043B403ABDD261
:10210000303211D351F8043B40F8043B51F8043B02
:1021100040F8043B51F8043B40F8043B51F8043BC1
:1021200040F8043B103AEDD20C3205D351F8043B91
:1021300040F8043B043AF9D2043208D0D2071CBF5D
:1021400011F8013B00F8013B01D30B880380604686
:10215000704700BF082A13D38B078DD010F00303FC
:102160008AD0C3F10403D21ADB071CBF11F8013B6C
:1021700000F8013B80D331F8023B20F8023B7BE7BB
:10218000043AD9D3013A11F8013B00F8013BF9D2E6
:102190000B7803704B7843708B7883706046704780
:1021A000F0B4860746D0541E002A3CD0CAB203467B
:1021B00002E014F1FF3436D303F8012B9D07F8D168
:1021C000032C29D9CDB245EA05250F2C45EA054552
:1021D00033D9A4F11006360903F1200707EB0617DF
:1021E00003F1100242E9045542E902551032BA42A5
:1021F000F8D1721C14F00C0F03EB021204F00F065E
:1022000013D0331F23F003030433134442F8045B59
:102210009342FBD106F003042CB1C9B21C4403F86D
:10222000011B9C42FBD1F0BC704734461346002C86
:10223000F3D1F8E714460346C2E71A462646E0E71C
:102240002DE9F041214F00254FF0010857F8044BCC
:1022500024F00F0604F00F0408FA04F421460122CA
:102260003046013508F08DF9A4B2062D7483EDD106
:10227000174D0024012655F8040B00F00F014022F1
:1022800006FA01F120F00F00013408F07AF9082C69
:10229000F1D140224FF480510E4808F072F94FF40A
:1022A00000510C48402208F06CF907F0FCFC0A4988
:1022B0000A4803230B604FF47A734B60BDE8F0418A
:1022C00040F6FF738B6007F0F0BC00BF08B4000855
:1022D00020B4000800040048F0100020A41F0020D3
:1022E00038B501F00F01154D154B2A5C5B5C1344AA
:1022F0005BB2032B04462B541DDD124A135C0021F4
:102300000133135400F006F901202B57033308DA88
:102310000C4A135D0121013B2046135500F0FAF8E9
:1023200001202B575A4202F0030203F0030358BF67
:1023300053422B5538BD0020E7E700BFD0100020E6
:10234000680C0020E01000202DE9F84F06466A488E
:10235000DFF8B091DFF8B0A107F0B5FC4F464FF0C1
:1023600000085AF8044B654D24F00F0B012304F0CC
:102370000F0403FA04F4A4B24FF4B460ABF81840AD
:1023800006F072FA002128468C4650F8042B22F001
:102390000F0302F00F0E1B6923FA0EF303F0010383
:1023A0008B4001314CEA030308295FFA83FCECD12E
:1023B000ABF81A403B7808F10108634518BF87F86D
:1023C00000C0B8F1060F07F10107CAD10021701E45
:1023D0008E460E4610F801CF80F800E000234F46ED
:1023E0001C4617F8012B0A4102F00102A2400134F9
:1023F0001343062CDBB2F4D10131634518BF46F01C
:10240000010608290370E5D1A94600274FF0010A0B
:1024100059F8044B24F00F0804F00F040AFA04F4EE
:10242000214601224046013708F0ABF8A4B2082F3C
:10243000A8F81840ECD120224FF480513048DFF842
:10244000CCA0DFF8BC9008F09CF820224FF400519B
:102450002B4808F096F8A8464FF0000B58F8044BAC
:10246000012324F00F0704F00F0403FA04F4A4B2CC
:102470004FF434707C8306F0F7F9D9F81020D9F8BE
:102480001010090BC2F3003201F0020111431AF8D7
:10249000012B02F00300884208D041EA8201C9B250
:1024A0000AF8011C5FFA8BF0FFF71AFF0BF1010B22
:1024B000BBF1080F3C83D1D140224FF4805110482A
:1024C00008F05FF840224FF400510D4808F059F829
:1024D0000024012755F8040B00F00F01402207FAF1
:1024E00001F120F00F00013408F04BF8082CF1D175
:1024F0003046BDE8F88F00BFA41F002020B40008BC
:1025000000040048E810002008B40008D81000209B
:1025100001F028BE38B50D4604F06EFC044670B1DB
:102520000C4B188800F066F958B10A2125B1A92092
:1025300000F0FEFA2C4602E0AA2000F0F9FA20464C
:1025400038BD1DB14E2000F003FBF3E74B2000F037
:10255000FFFAF4E70411002010B5044600F04AF930
:10256000013803281AD8DFE800F006021513D2223A
:10257000FF211A2002E0FF221A21D22004F00CF8D9
:102580002046032302220121BDE8104000F094BE42
:10259000DA22EDE776221A21FF20EFE7FF221A2147
:1025A0006620EBE704280DD807290BD8052A09D89F
:1025B00030234343062000FB01311144024B33F822
:1025C000110070470120704770B40008FFF7EABFA0
:1025D0000120704708B5FFF7FBFF08BD01207047D9
:1025E0000120704708B5FFF7FBFF08BD704708B52D
:1025F000FFF7FCFF08BD000013B502AB03E90300C1
:102600000F4B1B78B3B99DF80530009873B16AB1D0
:1026100000F000FE04460146009800F0C9FD009954
:10262000204602B0BDE8104001F056BC00F0DAFDD3
:102630000446F4E7009800F0EDFD0099F1E700BFD3
:1026400001110020034610B400885C880A4640EA65
:10265000044099885DF8044BFFF7CEBF10B5012107
:102660000446FFF7EFFF2146FFF7B4FF10BD10B59A
:1026700000210446FFF7E6FF2146FFF7B8FF10BD33
:102680007047000010B500F0A1FC02F0F9FD05F064
:10269000FDFA002204460321084802F0F5F9FFF78D
:1026A000EFFF204605F0F7FAF92803D9BDE81040FE
:1026B00002F080B90A2006F05AFBF2E7780C0020FD
:1026C00008B5FFF7DFFFBDE8084005F003BB08B51C
:1026D000FFF7D8FFBDE8084005F006BB38B501217B
:1026E0000546FFF7AFFF29460446FFF77BFF08B911
:1026F000002038BD2946204602F008F90028F7D00E
:102700002946204602F064FE0028F1D029462046E2
:1027100004F0F0FF0028EBD02946204604F050FAE0
:102720000028E5D02946204604F062FF0028DFD0CB
:102730002946204604F024F90028D9D06B7963B1EA
:1027400047F603439C4230D00BD847F601439C42E6
:102750002DD018D8B4F5F84F12D02846FFF73EFF19
:10276000C7E747F65B439C4227D047F65C439C4251
:1027700020D047F65A439C42EFD101F053F9ECE7E1
:10278000FFF79EFFB4E70E4A1078C0F3000383F012
:10279000010363F3000010F00104107003D0094836
:1027A00002F07EF8A4E70848FAE701F041F9FFF7E4
:1027B0008EFF9DE701F02AF9CFE701F036F9CCE76B
:1027C000C611002050B6000861B6000808B505F033
:1027D0008CF900F052F802F0EDF8BDE8084003F083
:1027E000C7BE08B500F04EF804F0B8F8BDE80840E0
:1027F00005F080B9030A002B16BF184600230823F2
:10280000020918BF1046C0F38F0218BF043312B17B
:102810000233DBB21046C0F34F0008B10133DBB224
:1028200018467047030943EA0010C0B283008010C5
:1028300000F0330003F0CC03034358005B1003F0B7
:10284000550300F0AA0018437047704701207047F5
:10285000704738B50546FFF7F9FF044610B1284622
:10286000FFF7F6FF204638BD704710B50446FFF766
:10287000ECFF2046FFF7EDFF10BD08B50020FFF785
:10288000F4FF08BD08B504F089FFFFF7EEFF08BDAF
:1028900038B504F083FF124B1A78824204461DD0EB
:1028A000187005F0BFF90F4D0F4B18602B785807C3
:1028B00011D5D9070FD50D4801F0F2FF2B78DA07B3
:1028C00009D521460A4801F0EBFF2B78DB0702D53A
:1028D000084801F0E5FF2046FFF7C7FF38BD00BFFD
:1028E00000110020C6110020FC10002073B6000863
:1028F0007EB6000859BD00081FB56C4684E8030089
:102900009DF805300BB100F0A5FF0023ADF80E30A7
:1029100094E8030011F0FF0F0290ADF80C1002AC28
:1029200005D194E8030000F0D9FE04B010BD2046A4
:10293000FFF794FE0028F4D1F7E70379012B02D1C9
:10294000008800F089BC704708B529B102F0A2FEEA
:10295000BDE8084002F072BF02F0FAFEF8E700009E
:1029600010B5044600287CD0822813D104F016FF4D
:10297000810776D4392000F013FF00F0B3FF4FF445
:10298000487006F0F4F9392000F012FFBDE810405D
:1029900000F0A8BF83280ED104F000FFC20760D466
:1029A000532000F0FDFE00F09DFF4FF47A7006F01A
:1029B000DEF95320E8E784280ED104F0EFFE430748
:1029C0004FD4472000F0ECFE00F08CFF4FF47A70FB
:1029D00006F0CDF94720D7E7031FDBB2A02B12D8B2
:1029E00004F01CFD00283CD11E4B2146186804F061
:1029F0007FFF20B1204600F0DBFE00F073FF204691
:102A000000F0CEFEC2E700F12003DBB2072B07D8AF
:102A100000F007040120A040C0B200F0F5FEB5E7C9
:102A200000F15B03DBB2022B05D80F4ABDE8104072
:102A3000D05C04F007BF00F15803DBB21A2B06D8B4
:102A40000A4ABDE8104032F8130004F017BF3334CF
:102A5000E4B2122C05D802F01DFEBDE8104002F0D1
:102A6000EDBE10BD900C002083B6000886B60008AD
:102A700008B5034600285AD082280FD104F08EFEF4
:102A8000810754D5392000F08BFE00F02BFF392050
:102A900000F08EFEBDE8084000F024BF83280AD174
:102AA00004F07CFEC20742D5532000F079FE00F00E
:102AB00019FF5320ECE784280AD104F06FFE430786
:102AC00035D5472000F06CFE00F00CFF4720DFE713
:102AD000021FD2B2A02ADBD900F12002D2B2072A0B
:102AE00007D800F0070301209840C0B200F094FE20
:102AF000D0E700F15B02D2B2022A04D80020BDE880
:102B0000084004F09FBE00F15802D2B21A2A04D83D
:102B10000020BDE8084004F0B1BE3333DBB2122B15
:102B200005D802F015FEBDE8084002F087BE08BDDA
:102B300038B505460C46FFF713FF1CB92846FFF7CA
:102B400097FF38BD0A20013C06F011F9A4B2F4E762
:102B500008B539280CBF50210021FFF7E9FF08BD57
:102B600008B528B100F050FEBDE8084000F0BABE3C
:102B700008BD08B528B100F04FFEBDE8084000F0E0
:102B8000B1BE08BD2DE9F0478679447980460D46EF
:102B900000F02AFE36090746F0B12746E4B1C5F336
:102BA000072303F0F002402A09D005F12002D2B237
:102BB000072A23D91EB903F0E003202B20D0AF4B06
:102BC0005F7817F0040707D0022000F0E3FE00F062
:102BD0000BFE80F00100C7B2C5F303330B2B43D8C3
:102BE000DFE813F01000100063006300C300D90099
:102BF00042004200DE003C014E014E010027EBE79F
:102C00003746E9E7C5F30723C5F3032613F0F00FB2
:102C100018BF36015FFA85F994B166B109F1200356
:102C2000DBB2072B304602D9B9F1000F05D100F015
:102C3000EBFD00F057FE48465CE000F0FBFDF8E7D6
:102C40004846FFF715FF7EB109F12003DBB2072BE1
:102C5000304602D9B9F1000F02D100F0DDFD01E0EC
:102C600000F0F0FD00F03EFEC5F30335083D032DF6
:102C700003D804F093FDFFF7F8FD002F00F0598111
:102C800000F0AAFD10F0010040F0538188F8050023
:102C900000F09CFD00F022FA404600F061F900F0DF
:102CA00095FDBDE8F04700F025BAC5F3072303F012
:102CB000F003C5F30329202B5FFA85FA18BF4FEA0A
:102CC0000919BAF1000F07D0BAF1010F35D0002C65
:102CD0003DD0E6B150460DE0684B5B78590714D4FF
:102CE0005CB1B9F1000F04D0484600F08DFD00F052
:102CF000F9FD0020FFF734FEB6E72046FFF7B8FEE7
:102D0000B9F1000FB0D04846A7E754B11EB9484604
:102D1000FFF726FFA8E7012EA6D1484600F0BAFD2E
:102D2000A2E7002EA0D14846FFF723FF484600F057
:102D3000BFFD484600F09AFD96E714B1052E93D8E2
:102D4000E5E7042E90D84846FFF713FF8CE7002EE6
:102D5000F9D0BAF1390F0CBF4FF44870012006F0DA
:102D600006F85046FFF784FE7EE7C5F3812343B1A2
:102D7000012B7FF479AF64B1C5F3090004F07EFD47
:102D800072E724B1C5F3090004F05CFD6CE720464E
:102D9000FAE72046F2E72146E8B2FFF7D5FD63E700
:102DA00015F4407F29D1002C7FF45EAFEA06C5F30D
:102DB000421148BF0F244FEA810148BF8C4005F003
:102DC0000F0048BFE44300FA01F0C5F3812348BF78
:102DD000A4B280B2022B40EA040008D00AD8012B2A
:102DE00002D000F055F93FE700F04AF93CE700F067
:102DF00057F939E700F041F936E7C5F30122D3B2BC
:102E00000CB302F00103002B3FF42EAFC5F34210C8
:102E1000820015F010001CBF0F20904005F00F033A
:102E200018BFC04303FA02F3C5F3812218BF80B272
:102E30009BB2022A40EA03000AD00CD8012A04D02F
:102E400000F078F910E75B08DDE700F06BF90BE7BD
:102E500000F078F908E700F02FF905E75FFA85F947
:102E6000C5F303261CB1304600F038F94FE7484659
:102E7000FFF77FFE304600F03DF9F5E6DC1C002050
:102E80005FFA85F9A9F1F003042B3DD8DFE803F0E0
:102E900003220E151E003CB1042E3FF6E5AEC5F32D
:102EA000042000F033F9DFE6052EF6E7C5F3042031
:102EB000002CE0D100F012F9D6E624B1C5F30420CD
:102EC00000F005F9D0E600F0FFF8CDE61A4B5B788C
:102ED0005B0704D4C5F30420002CCCD0EAE74CB146
:102EE000C5F30424204600F0F9F80321204600F041
:102EF0002FFDB9E6012000F04DFD012E7FF6B4AEA6
:102F0000022000F047FDAFE62CB1002E7FF493AE17
:102F1000C5F30420CEE74EB1B9F1390F0CBF4FF421
:102F20004870012005F023FF48461BE7C5F3042045
:102F3000A1E7BDE8F08700BFDC1C002038B50188A0
:102F40000446407900F094F9054600F003F900F0DA
:102F500093F829462046BDE83840FFF713BE00002D
:102F6000037910B50446B3B1FFF7B8FB68B900F0B8
:102F70003BFC80B1637973B1074B5B785B070AD583
:102F80000220BDE8104000F005BD2046FFF7D6FF47
:102F90002046FFF76CFB10BDDC1C002008B50020AC
:102FA00004F050FC002004F069FC00F053FC00F039
:102FB00099FC02F0B7FCBDE8084002F03FBC08B540
:102FC00000F0FEFBBDE80840FFF7E8BF08B500F0E1
:102FD0002BFCBDE80840FFF7F2BFC0F303320E320E
:102FE00002F00F02092A10B5C4B21BD8012101FA60
:102FF00002F340F20332134203D113F010000DD15B
:1030000010BDF02C10D004D8E72C8CBF002001207C
:10301000F6E7F42C14BF00200120F1E7E72C03D9D8
:10302000F12CF7E70020EBE70846E9E708B503795C
:1030300033B1008800F010F9BDE80840FFF7CDBFBC
:10304000184608BD82B002AB03E9030002B0704726
:1030500082B002AB03E9030002B07047704708B5C5
:10306000FFF7FCFF08BD000008B5FFF7F8FF014BB4
:10307000188008BD021100207047FFF7F5BF00005F
:10308000024B1B881843FFF7EFBF00BF021100205F
:10309000024B1B881840FFF7E7BF00BF021100205A
:1030A000024B1B885840FFF7DFBF00BF0211002012
:1030B00008B5FFF751FA08BD08B5FFF7F9FF014B56
:1030C000188008BD041100200020FFF7F5BF012380
:1030D00003FA00F080B2FFF7EFBF0000012303FA0C
:1030E00000F0034B1B88184380B2FFF7E5BF00BF19
:1030F00004110020012303FA00F0034B1B8823EA8C
:103100000000FFF7D9BF00BF04110020012303FA1C
:1031100000F0034B1B88584080B2FFF7CDBF00BFC3
:1031200004110020024B1B881843FFF7C5BF00BFE6
:1031300004110020024B1B881840FFF7BDBF00BFE1
:1031400004110020024B1B885840FFF7B5BF00BF99
:1031500004110020704701F0070330B5C9080124AD
:1031600002EB81029C40E4B2013A002112F8015FB7
:1031700020FA01F343F300036B40234001316B401D
:1031800004291370F2D130BD10B5002200F00704FD
:10319000C00801EB800110468B5CE34003F00103A3
:1031A000934001321843042AC0B2F5D110BD00008B
:1031B00082B00B46ADF80400C0F3072007280CD8F6
:1031C0009DF80410052908D800EB4000044A01EBE3
:1031D0004001184602B0FFF7BEBF02B0704700BF03
:1031E0000611002082B0ADF80400C0F307200728C4
:1031F0000BD89DF80430052B07D800EB400004499C
:1032000003EB400002B0FFF7BFBF002002B07047E1
:10321000061100200E4B73B51E880E4BADF804004E
:103220001B880F241E4346FA04F3DB07E5B206D4DD
:1032300014F1FF34F7D20025284602B070BD019981
:10324000284600F05AFE80B20128F1D0F4E700BF12
:10325000041100200211002007B5ADF80400019808
:10326000FFF7D8FF019903B05DF804EB00F045BE0D
:1032700013B5104BADF804101B782BB1019802B0B8
:10328000BDE81040FFF7E8BF70B10198FFF7C2FF3B
:10329000044601460198FFF78BFF0199204602B0D2
:1032A000BDE8104000F029BE0198FFF79BFF0446DF
:1032B000F3E700BF0111002010B5012404FA02F267
:1032C00004FA01F1114389B231EA000204FA03F36E
:1032D00006BF184380B2984310BD0000F8B50C4BF0
:1032E0000C4E1C780C4D3378A34200D1F8BD05EB91
:1032F000C40335F834005F889A88D98840EA0740CB
:1033000042EA01410134FFF7A3FE04F00704EAE7B3
:10331000671100206611002026110020064B10B412
:1033200018885C889A88D98840EA044042EA0141BA
:103330005DF8044BFFF78CBE1E110020F8B51B4B47
:103340009A7912F0F00F0AD15A7942B1184A194904
:1033500012780D781E885F88174CAA4200D1F8BDFC
:1033600011B204EBC1000079E0B134F83110B14280
:1033700018D104EBC2004179A1B94188C91B89B2B7
:10338000C7290FD89979012262F3071199718379BE
:1033900062F3071383710548FFF7E2FDBDE8F840CB
:1033A000FFF79CBF013202F00702D6E71E11002092
:1033B00067110020661100202611002070B50D4B0A
:1033C0000D4A1B7815780D4CAB4202D100221046F5
:1033D00070BD04EBC30256788E4206D114F83360F8
:1033E000864202D15279002AF1D1013303F007035A
:1033F000EAE700BF671100206611002026110020B7
:103400002DE9F04F89B002AB04460146062218466A
:10341000B14DFEF72BFE2979227967790346A8463C
:10342000C1B9AAB18FB12046FFF700FE064660B1D0
:10343000082221462846FEF719FE2846FFF77DFAA6
:10344000FFF77CFFFFF76AFF65E02046FFF788FD86
:10345000012660E0B4F802A068886E7994F800B0A4
:1034600094F80190AAEB000080B2002E00F0E780F3
:10347000C72800F29780002A4DD0AB792A8820888F
:1034800013F0F00F58D190420ED1002F4DD10122F0
:1034900062F30713AB71FFF741FF2846FFF760FDAA
:1034A000AB79A371002636E0002F3ED1494658463D
:1034B000FFF784FF5846FFF781FF05460028F1D14A
:1034C0008DF808B08DF809900298FFF7C5FEC0F39B
:1034D00003310B2912D801228A4012F4406FC3B283
:1034E0001DD112F00C0F0ED1910707D010F4706FA0
:1034F00000D07BB12033DBB2072B0BD92046FFF77E
:103500002FFD354606E010F4706FF3D0A27912F06B
:10351000F00FEFD12E46304609B0BDE8F08FEF2B0B
:10352000F8D90F33DBB2022BE7E798F8063043F007
:10353000010388F80630B5E790420AD14FB920461A
:10354000A371FFF70DFD082221462846FEF78EFDE8
:1035500078E72046FFF76AFD00283FF476AF002F9A
:103560003FF473AF98F806301F2B11D9B8F800203C
:10357000ADF8102098F804208DF814200022ADF842
:1035800012A08DF815208DF8163004A8FFF7E8FC7E
:10359000082221465048FEF769FDFFF7CFFEFFF7EE
:1035A000BDFE55E7A87910F0F001019118D18DF812
:1035B0000C208DF808B08DF80990ADF80AA08DF8B0
:1035C0000D7093E80300FFF73DFD2846FFF7C8FCA8
:1035D000082201992846FEF7E3FDFFF79FFE61E709
:1035E000002A98D02A8823889A420AD14FB9A0711C
:1035F0002046FFF7B5FC082239462846FEF7D0FDE5
:1036000089E72046FFF712FD00283FF41EAF002F88
:103610003FF41BAF98F806301F2BB9D9B8F800203B
:10362000ADF8182098F804208DF81C200022ADF881
:103630001AA08DF81D208DF81E3006A8A6E7C72811
:1036400035D8002A3FF404AF3E46002F3FF4FDAECC
:103650002A8823889A421CD1AB79DA0713D413F055
:10366000F00210D0F02AA37106D0DBB2C3F303122C
:10367000013262F30713A3712046FFF771FC0822A1
:103680002146154862E7082221461348FEF7EEFC62
:1036900041E72046FFF7CAFC00287FF479AFAB79F9
:1036A000204643F00103AB71FFF75AFC33E78DF876
:1036B0000C208DF808B08DF80990ADF80AA08DF8AF
:1036C0000D7093E80300FFF7BDFC08223146284641
:1036D000FEF766FDB6E600BF1E110020F0B585B00E
:1036E0006C4684E803002046FFF78AFE284E294DE9
:1036F000074668B19DF804301BB194E80300FFF75A
:10370000A7FC254C28783378834226D105B0F0BD3C
:1037100094E803009DF8042002AB83E80300002A2C
:10372000EFD030782A78441C04F0070494420AD081
:103730001946194B082203EBC000FEF797FC3470C2
:10374000FFF7CCFDDDE7FFF741FC082239461348BF
:1037500037702F70FEF724FDD3E704EBC000FFF7AE
:103760004FFE0028D2D02B7834F8330004EBC3038B
:103770005F889A88D98840EA074042EA0141FFF70A
:1037800067FC2B78013303F007032B70BAE700BF07
:103790006611002067110020261100201E11002054
:1037A000024B0146186804F023B900BF900C0020BA
:1037B000024B0146186804F035B900BF900C002098
:1037C000014B186804F048B9900C0020014B1878A0
:1037D000C0087047A8110020024B187800F00700BD
:1037E000704700BFA8110020034B187810F00700A5
:1037F00018BF0120704700BFA8110020014B1878A6
:10380000704700BFAB110020024A137818431070B4
:10381000704700BFAB110020024A137823EA000072
:1038200010707047AB110020014B00221A707047D6
:10383000AB110020024A137818431070704700BF84
:10384000AC110020024A137823EA00001070704780
:10385000AC110020014B00221A707047AC110020FF
:10386000704708B5FFF7FCFF08BD000008B5054A22
:103870001378034204D023EA00001070FFF7F1FF31
:1038800008BD00BFA9110020704708B5FFF7FCFF75
:1038900008BD000008B5054A137830EA030C03D0D0
:1038A00003431370FFF7F1FF08BD00BFAA1100200A
:1038B00008B5054A1378034204D023EA00001070CB
:1038C000FFF7E3FF08BD00BFAA11002008B5044BB5
:1038D0001A781AB100201870FFF7D7FF08BD00BF93
:1038E000AA11002010B5124B12491B780978124C0E
:1038F0000B43124920680978037031B10B43037000
:1039000003F0D8FF08B1FFF7E1FF24680C4920223B
:103910002046FEF77BFB48B1214620220848FEF7EF
:10392000A5FB2046BDE8104003F040BF10BD00BF1E
:10393000AB110020AC110020900C0020AA11002037
:1039400088110020704708B5FFF7FCFF08BD000094
:10395000094A5278520710B50AD5084C41EAC0010D
:103960002170FFF7BBFB2078C008FFF7ECFF10BD0C
:10397000BDE81040FFF7B2BBDC1C0020A8110020FE
:1039800008B5034B00201870FFF7DDFF08BD00BF2E
:10399000A811002008B50A4A137823EA0000107025
:1039A00042070CD198420AD0064B5B785B0706D5DC
:1039B000C008FFF79FFBBDE80840FFF7E1BF08BD67
:1039C000A8110020DC1C00200D4A5378C3F38001AD
:1039D000814210B5044612D060F382035370108800
:1039E00000F043F80220FFF7D5FF064B1B78DB07FA
:1039F00005D521460448BDE8104000F051BF10BD78
:103A0000DC1C0020C6110020BCB60008044B58780E
:103A1000C0F3800080F0010000F00100FFF7D4BF88
:103A2000DC1C00200120FFF7CFBF0020FFF7CCBF38
:103A300008B502F0F5F84FF6FF710020BDE8084028
:103A400002F0D0B808B5002002F065F84FF6E66342
:103A5000C31A5842584108BD022002F04DB8032055
:103A600002F04AB8042002F056B80146042002F0E1
:103A7000B9B8072002F040B80146072002F0A4B808
:103A800001460F2002F0BCB80146132002F0B8B87E
:103A90000020FFF7F9BF08B50020FFF7F1FFFFF79F
:103AA000F7FF08BD13B502F0BBF84FF6E661002042
:103AB00002F098F80021022002F086F8002103208D
:103AC00002F082F81A4B00244FF4A05104201C800D
:103AD00002F088F82146062002F076F8FF21072040
:103AE00002F072F82146082002F08AF821462420CC
:103AF00002F06AF82146172002F066F821460C20F1
:103B000002F062F821460D2002F05EF80023002248
:103B1000CDE9002368460822182102F03BF821462F
:103B2000202002F06DF8FFF7B6FF02B010BD00BF15
:103B300002110020FFF7B6BF01460E2002F044B884
:103B400073B50C4C04F0A2F82388834205460ED0CE
:103B50000026ADF8006004F099F8ADF80460ADF807
:103B6000020002AB13E90300FEF7C6FE258002B097
:103B700070BD00BFBC11002008B504F053F8024B23
:103B80001860024B186008BDB4110020B811002065
:103B900008B504F047F8024B1860024B186008BDE6
:103BA000B4110020B01100207047704708B5FFF72E
:103BB000FCFF08BD704708B5FFF7FCFF08BD0120FA
:103BC0007047000008B5054800F082FA02F026F8B8
:103BD000FFF7EAFFFFF7EAFF08BD00BF31830008E7
:103BE0000120704708B5FFF7FBFF08BD704770471D
:103BF00008B5FFF7FBFFFFF7FAFF08BD08B500F0B7
:103C00008FFAFEF731FEBDE8084000F0AFBF08B5FF
:103C100003F0ECFF03F0F2F800F0DEFAFFF7EEFF3E
:103C200002F034FE03F0CAFCFFF7C5FF08BD08B57B
:103C300001F06CFB0020BDE8084003F083BC0000ED
:103C40002DE9F04F85B0FFF7BAFF78B9FFF778FF9D
:103C5000FFF7EDFF03F006F908B1FFF799FF01F058
:103C600089FE05B0BDE8F04FFEF712BE2B4F00F005
:103C7000CDFA3E46002420460134E4B216F8015B3A
:103C800000F076FA082C45D08542F4D0244B1B78FE
:103C90009B0701D500F072FAFFF7A4FF0026009001
:103CA0004FF0010B5FFA86F8404600F061FA17F812
:103CB000012B9042824627D00024012542400DF17D
:103CC0000809154218D0009BB3B101928DF8084045
:103CD0008DF8098003F0DAFF1AEA050F14BF0121FD
:103CE0000021ADF80A008DF80CB08DF80D1099E8A0
:103CF0000300FEF701FE019A0134E4B26D00062CC8
:103D0000EDB2DED107F801AC0136082ECAD1FFF7BB
:103D100033FF9DE78542B9D198E700BFBE1100206F
:103D2000C611002038B500F0F3F8B0F5A04F0446F6
:103D300022D2B0F5804F77D2DF2812D8CD2861D2B9
:103D4000A7280AD8A5284ED2012804D003B233B13F
:103D5000032898BF0024204638BDC2284AD9002431
:103D6000F9E7B0F5005F80F0A280B0F5807F4DD21A
:103D7000E82828BF0024EEE745F25F23984216D8D2
:103D800045F2402398425FD245F21F23984254D80F
:103D9000B0F5A44F7CD3C4B2A008012304F00304FF
:103DA00003FA04F444EA401444F40D442CE045F2D0
:103DB0009F23984207D8B0F5A54F52D300F01F04B7
:103DC0004AF2F4003DE045F2BF23984256D945F24D
:103DD000DF239842C3D8040204F4F85444F4204486
:103DE00044F0F004B7E75B34E4B2394B1C5D44F4B3
:103DF0008044B0E75834E4B2364B33F8144044F40E
:103E00008844A8E740F4A044A4B2A4E7C0F3072084
:103E100000F006F90546E0B200F07AF82D0205F44C
:103E2000F855284384B296E7C0B200F071F804F464
:103E30007064044344F42044E6E700F01F044AF2AF
:103E4000F10040EA042486E7C4B2C4F382000123EF
:103E500004F0030403FA04F444EA401444F40C4468
:103E6000D2E7C4B2C4F38200012304F0030403FACE
:103E700004F444EA401444F40A44C5E700F01F0087
:103E800000F0CEF8040204F4F85444F4005462E75D
:103E900000F01F0000F0C4F8C306C4F3431448BF89
:103EA0000001240200B2044344F41044ACE7C0F320
:103EB000042000F0B5F80546E0B200F029F82D0224
:103EC00005F4F85545EA000444F400549CE700BFAB
:103ED000D1B60008D4B6000882B0ADF80410C1F322
:103EE0000721072906D89DF80420052A02D802B028
:103EF000FEF76CBB002002B0704707B5ADF80410A8
:103F00000199FFF7E9FF03B05DF804EBFFF70ABF83
:103F1000822825D00CD8312867D004D829285AD037
:103F20002A2869D07047352850D0392818D07047D2
:103F3000E32833D004D8E0281CD0E22829D07047E9
:103F4000E62835D0E72838D0E42835D1334B5A78E5
:103F5000910731D51B7813F0100F08BFE72015E04B
:103F60002E4B1A78920752D15B7813F0080F18BFC6
:103F700029207047294A1378D90744D4527812F07F
:103F8000010F19D013F0100F08BFE32018BF002055
:103F90007047224B1B7813F0040FF2E71F4A137887
:103FA000590732D45278D20731D413F0100FEDE70D
:103FB0001A4B1B781A07CED47047184A1378190782
:103FC00027D452789107F0D5E4207047134B1B7823
:103FD00013F0200FCBE7114B1A7892061BD45B78B5
:103FE00013F0080F18BF392070470C4B1B7813F0E3
:103FF000400F18BF2A207047084B1B7813F0400F62
:1040000018BF3120704739207047E2207047E02008
:104010007047E62070473520CEE700BFDC1C00204B
:10402000294B1A78510707D500F01801082927D124
:1040300000F0F70040F00400110707D500F0180168
:10404000182926D100F0E70040F014005B78D9076A
:1040500007D500F01801082924D100F0F70040F03E
:104060000100990707D500F01803182B23D100F0A1
:10407000E70040F01100D30648BF00F0E7007047AA
:1040800000F01401042904BF00F0FB0040F0080018
:10409000D2E700F01401142904BF00F0EB0040F057
:1040A0001800D3E700F01101012904BF00F0FE0061
:1040B00040F00800D5E700F01103112B04BF00F019
:1040C000EE0040F01800D6E7DC1C0020002070470E
:1040D000014B1860704700BF940C0020014B1B6817
:1040E000184700BF940C0020FFF7A2BC08B500F0F1
:1040F0008DF84FF4967004F03AFE00F087F8002037
:1041000000F036F8C30705D5FFF7EEFFBDE808401D
:1041100003F0E0BD08BD08B5FFF7E8FF08BD0000EB
:1041200008B5FFF78FFC08B9FFF704FDFFF794FC13
:10413000094B1870FFF796FC084B1880FFF7EBFF50
:10414000FFF78DFC80B2FEF798FF054B1888BDE89D
:104150000840FEF7ADBF00BFC6110020DC1C0020E8
:10416000041100207047704708B5FFF7FCFF08BD39
:10417000014B185C704700BFE61C00202DE9F041A0
:104180000F48104DDFF84C800F4F104E00F088FBA9
:1041900000242146404600F083FB384600F080FBB7
:1041A00015F8010BFEF73EFB0146304600F078FBA8
:1041B0000134074800F074FB082CEAD1BDE8F08117
:1041C0000AB70008E61C00207BB6000819B70008F3
:1041D00059BD00087EB6000808B5FEF731F8094859
:1041E000094A08230021013B13F0FF0300F8011BDB
:1041F00002F8011BF7D1082000F01CF8FEF788F93F
:1042000008BD00BFDE1C0020E61C002010B5074CD6
:104210002046FEF799F8082203460549204600F09B
:104220000BF80446FFF7A0FF204610BDDE1C00205F
:10423000E61C0020704700002DE9F04107460E46BD
:104240009046124D2BB101232B7003F0EBFC104B69
:1042500018602C781CB900242046BDE8F0810C4B76
:10426000186803F01FFD0428F5D942463946304648
:10427000FDF7CCFE38B1424639463046FDF7F6FE32
:1042800000232B70E8E70446FAE700BFC7110020BF
:10429000C811002008B504F091F8FFF7B8FCBDE89C
:1042A000084004F0A5B808B504F0A8F8FFF7C8FC6A
:1042B000BDE8084004F0C8B808B503F031FC04F0CC
:1042C0007BF8FFF77FFCFFF7E5FFFFF7ECFF03F05C
:1042D00023F9FFF78DFCF8E703460846DA68511C1E
:1042E00010B4D96019698A4208D21C6824B159688F
:1042F00023465DF8044B18479B6898545DF8044BBF
:1043000070472DE9F047DDF82090D0F80C8019F0C7
:10431000030F05468A4614461F460FD054445445A1
:104320000ED119F0020F15D1BDE8F08720212846E3
:10433000FFF7D2FF0136BE42F8D3EFE71646FAE7A1
:1043400014F8011D2846FFF7C7FFE8E7202128469B
:10435000FFF7C2FFEB68A3EB0803BB42F6D3E3E72A
:104360002DE9F04F8BB09646DDF85080159E169CD7
:1043700002AFF1B9250517D430228DF8082024F0BA
:1043800010040121A20761D404F0010546B1002DFB
:104390005CD0BEF1000F02D114F00C0F00D0013E32
:1043A0000A464FF0300C28E0102BEBD124F010041B
:1043B000E8E714F0200F8C463A464FF0000114BF96
:1043C0004FF0370A4FF0570ABCFBF3F903FB19CB48
:1043D0005FFA8BF5BBF1090F94BF30355544EDB250
:1043E000634501F1010102F8015BCBD82029C9D056
:1043F000CC46E9E702F807C001321DB1964201D967
:10440000202AF7D1302501E0D5550132904501D958
:10441000202AF9D1082B03D1914238BF24F010048F
:1044200042F210052C4244D025052ED46AB39045A3
:1044300001D0964229D191424ED2013A25D0102B7B
:1044400020D0022B2DD191421ED303E00A46D9E79A
:10445000022B26D11F2A37D80AAB134462211DE054
:104460001F2A31D80AAB1344582117E0610703D53E
:104470000AAB13442B2124E0230725D50AAB1344B0
:1044800020211EE0914202D2013A102BE0D1A50674
:10449000E6D41F2A18D80AAB1344782103F8201C4D
:1044A00001321F2A10D80AAB1344302103F8201C14
:1044B00001321F2A08D8BEF1000FD7D00AAB13442F
:1044C0002D2103F8201C0132009433463946FFF7B2
:1044D00018FF0BB0BDE8F08F102BB2D1D7E7FFF774
:1044E000FDBD00002DE9F04F074687B00E4615468A
:1044F000317881B93B6853B93A6942B1B96831B191
:10450000FB689A4298BF02F1FF330022CA54F86850
:1045100007B0BDE8F08F252906F1010603D0384623
:10452000FFF7DAFEE4E7002406E02D2B16D0302B4F
:104530000CD144F001041646324612F8013B2B2BF5
:104540000FD0F2D8202B0FD0232B10D0A3F13001A5
:1045500009292BD84FF000080A2010E044F002048B
:10456000E9E744F00404E6E744F00804E3E744F034
:104570001004E0E700FB0838A8F130081646324680
:1045800012F8013BA3F130010929F3D933782E2B1E
:104590004BD17278A2F13001092906F1010344F4EC
:1045A00000643AD84FF000090A2614E02A2B0AD1F9
:1045B00055F8048BB8F1000FBCBF44F00204C8F1F9
:1045C00000081646E2E74FF00008DFE706FB09297E
:1045D000A9F130090B46194611F8012BA2F1300060
:1045E0000928F3D91E4616F8012B6C2A28D020D8AA
:1045F000682A2CD06A2A33D01E4616F8011B692976
:1046000036D063D8622900F030812CD8252986D095
:10461000582984D144F0200474E02A2A06D155F8A0
:10462000043B23EAE379B31CDCE733464FF000098F
:10463000D8E7742A01D07A2ADED144F40074DCE78A
:104640005A786C2AF9D144F4C0649E1CD5E75A7894
:10465000682A02D044F08004CFE744F0C004F4E7B5
:1046600044F48064C9E7632978D064297FF457AFA4
:10467000782944F4804445D05829CBD06F2900F0E4
:10468000F280622900F0F18024F010040A23200552
:1046900048BF24F00104610404F480623ED5002A7E
:1046A0007FF426AFA20505F1040A2DD529680294EE
:1046B00000294FEAD172CDF80480CDF80090B8BF40
:1046C00049423846FFF74CFE554611E7732969D039
:1046D00013D86F2900F0C78070297FF420AF55F8F8
:1046E000041B44F4005444F00104002940F0B0805D
:1046F00000940A2305225E495DE07529C4D078291B
:104700007FF40DAF1023C2E714F0400F296801D0E9
:1047100049B2CCE7200648BF09B2C8E7002A7FF4B7
:10472000E7AEA10524F00C0005F1040A06D50290BD
:10473000CDF80480CDF800902968C2E714F0400F4E
:10474000296807D0C9B20290CDF80480CDF8009056
:104750000022B6E7220648BF89B2F4E714F002044B
:104760001ED04FF0010955F8041B3846C9B2FFF7B7
:10477000B3FD002C3FF4BCAEC8457FF6B9AE202196
:104780003846FFF7A9FD09F10109F5E72021384670
:10479000FFF7A2FD4B46984503F10109F6D8E2E781
:1047A0000123F8E755F804BBBBF1000F07D13149ED
:1047B0000094434606223846FFF7A3FD98E6B9F178
:1047C000000F14BF4A466FF000425A44DA469AF886
:1047D000001009B1524513D114F40063AAEB0B0A7F
:1047E000049302D0CA4528BFCA4614F0020404D17B
:1047F000D0450AF1010206D892460BF1FF320FE0D4
:104800000AF1010AE3E7202138460592FFF764FD2B
:10481000059A9246ECE738460592FFF75DFD059A4A
:1048200012F8011F39B1049B002BF4D0A9EB020050
:104830001BEB000FEFD1002C3FF45AAED0457FF6B2
:1048400057AE20213846FFF747FD0AF1010AF5E788
:104850000A2301930294CDF80090102300223846D9
:10486000FFF77EFD44E6082311E702230FE700BFB0
:1048700025B700081EB700087FB5084B0193002339
:104880000293039304930A466FF00043014601A884
:104890000593FFF727FE07B05DF804FBDF4400082F
:1048A0000FB407B504A951F8040B0191FFF7E4FF19
:1048B00003B05DF804EB04B0704700000000000096
:1048C000453807EE900AF8EEE77AB2EE087AC7EEBE
:1048D000877A08B517EE900AFCF7B8FE9FED080B33
:1048E00041EC110BFBF708FD002251EC100B064BBD
:1048F000FCF704FFFDF7B2F900EE100A08BD00BF97
:10490000000000000000004000807B40B0F5E94F4F
:1049100008B505D14B7973B300F03AFA002008BD11
:1049200047F28143984204D14B7923B300F046FA11
:10493000F4E747F28243984206D14B79DBB100F0AD
:1049400031F80028F2D1E7E747F29443984209D1C1
:104950004B7983B100F07EFC00220421074800F06F
:1049600093F8DBE747F29543984204D14B7913B1B2
:1049700000F076FCF0E70120D1E700BF980C0020A2
:1049800008B5FFF79DFFBDE8084000F0FDB908B588
:10499000FFF796FFBDE8084000F016B900F00AB82E
:1049A00070477047024B187800F00100704700BF55
:1049B000681D002038B50D4D2C78B4B90C4B1C7017
:1049C00000F0FAFB0B4B0C491C700C4B1C700C4B91
:1049D0001C800C4B22460134082C1A8059601A8125
:1049E00003F10C03F7D101232B7038BDB80C002064
:1049F000CC110020D5110020000080BFD61100206E
:104A0000D2110020081D00200B4B1B7883420FD9C8
:104A1000013B1B1A09485BB20C2202FB030393ED16
:104A2000010AB5EEC00AF1EE10FA01D900F01EBC81
:104A30009FED030A704700BFCC110020081D002025
:104A4000000000000D4B07EE900A1B78F8EE676A35
:104A5000DFED0B7A9B0166EEA76A07EE903AB8EE9F
:104A6000E77AC6EE877A9FED077A67EE877AFCEEE3
:104A7000E77A17EE903A98B2704700BFDC0C00203E
:104A80000000704200007A44F8B5224B1B78DB0727
:104A900004460F46154603D4BDE8F840FFF78ABF29
:104AA0001D4B1B780BB900F061F81C4B1B780BB148
:104AB000FFF780FF1A4BD4ED017A1A4E01221A70CB
:104AC000194A346000231370184A1780184AFCEE04
:104AD000E77A1570174D2B8017EE903A98B2FFF7D2
:104AE000B1FF94ED000A00F0CBF803F0CFF8124BC1
:104AF0002A881880336803EBC203D3ED017AFCEEF9
:104B0000E77A17EE903A98B2FFF79CFF0B4B1880AC
:104B1000F8BD00BF681D0020CD110020D611002077
:104B2000D5110020041D0020D4110020F01C00200D
:104B3000691D0020CE110020D0110020D2110020CC
:104B400008B5074B1B78DB0704D500220521054873
:104B5000FFF79AFF03F09AF8034B188008BD00BFD7
:104B6000681D0020E00C0020D011002010B5124C70
:104B7000237803BBFEF766FF08B9FEF7DBFFFEF7FD
:104B800078FF0E4B002218700D4B0E481146013273
:104B9000082A19805860198103F10C03F7D1237892
:104BA0001BB900F0C3FA01232370FFF703FFBDE830
:104BB0001040FFF7C5BF10BDCD110020681D0020BB
:104BC000081D0020000080BFF8B5264DB5EEC00AD4
:104BD0002B78F1EE10FA2DED028BB0EE408A48BF33
:104BE000B1EE408A002B3AD01F4B1B780BB9FFF770
:104BF000BDFF1E4B07241846D3ED167AF4EE487A13
:104C0000F1EE10FA26D10C216143002243184252E2
:104C1000174959601A810F461646072C0ED1154BBD
:104C200001261E70144B1C78013CE4B21C70B4B910
:104C300000F0C2FA114B2C701E7010E003F10C0C46
:104C40009CE80700013483E807009E811F619E8273
:104C50006346E2E7013C621CA3F10C03CCD1BDEC3E
:104C6000028BF8BDD6110020CD110020081D0020B8
:104C7000000080BFD7110020CC110020B80C00200C
:104C80002DE9F041384B1B780746D8072DED028BF4
:104C9000B0EE408A50D5354B1B780BB9FFF766FF55
:104CA000334DDFF8D0802B78B5EEC08AF1EE10FAE4
:104CB00048BFB1EE488A5E1E0C22711C2FD1013311
:104CC000DBB2082B4DD908232B702A4B002603F1A9
:104CD0000C0494E807000136072E83E807002346FA
:104CE000F5D1254A01231370244A13702B785C1EDA
:104CF00002F0CCFF0C23634308EB030228F8030007
:104D000082ED018A178102F0C1FF1D4C1D4B1880F6
:104D100023788BB100F07AFA002323700CE002FBB9
:104D20000684D4ED017AF4EE487AF1EE10FA16D149
:104D30002B78013B9E4203DBBDEC028BBDE8F0818A
:104D400004F10C0898E8070084E8070002F09EFFD1
:104D50000136A08184ED048AA7824446E8E7013E3B
:104D6000ABE72B70BDE700BF681D0020CD11002010
:104D7000CC110020081D0020D7110020D6110020E2
:104D8000B80C0020E41100204FF6FF70FFF778BF49
:104D900008B5084B187840F001001870FEF76CFE5B
:104DA000FFF7FEFD002202210348BDE80840FFF79F
:104DB0006BBE00BF681D0020CC0C002008B500228F
:104DC00002210A48FFF760FEFFF7EBFD4FF47A700F
:104DD00003F0CDFFFFF7EEFD054B18786FF30000F1
:104DE0001870C0B2BDE80840FEF746BEBC0C0020FB
:104DF000681D0020624B1A782DE9F0479846614CF7
:104E000012B92578002D70D002F040FF2778814636
:104E1000F7B9002798F80030002B00F0AF805A4B0C
:104E20001D7825B9594B1D78002D08BF3D46584CBB
:104E3000584F00264FF6FD783B78B34200F38C8044
:104E4000554A1378002B50D0002111701D464CE0BC
:104E5000524D534E288802F01EFF33888342D8D823
:104E6000288802F018FFA5F800904E4D3488B5F858
:104E700000A00AF10103041B2B8002F007FF4A4B3C
:104E800018804A4B19882B888B42A4B2A94605D3B7
:104E9000474B1D783DB30023A9F80030454B4648E9
:104EA0001A680578B9F800308646DB0005BB02EBCE
:104EB000CA0CD5189CED007AD5ED007AB4EE677A6D
:104EC000F1EE10FA14D1012303700220FFF7BAFDAE
:104ED0009FED3A0AFFF7D4FE0220A9F800A0FFF7E1
:104EE000B1FD308096E7FFF765FD2846BDE8F08705
:104EF0001344D3ED017AFCEEE77A002017EE903AE6
:104F00008EF8000098B2FFF79DFD01398442B9F890
:104F1000003001D999420DDC84423ABF001B84B2B3
:104F2000012402EBC303204693ED000AFFF7A8FE1D
:104F300034806FE701339BB2A9F8003002EBC30362
:104F4000D3ED017AFCEEE77A201A17EE903A84B29C
:104F500098B2FFF777FDD9E72389013B9BB2434520
:104F600009D8208802F097FE2389834203D894ED64
:104F7000010AFFF729FE01360C345DE73D465FE785
:104F8000D6110020D5110020E1110020E0110020F1
:104F9000081D0020CC110020D7110020D0110020C6
:104FA000D2110020CE110020E4110020F01C0020BE
:104FB000691D0020041D0020D41100200000000005
:104FC00010B5084C0849204604F0D8FA20460221C2
:104FD00004F0E6FA032210214FF09040BDE81040A3
:104FE00005F0CFBACC1E0020080D002008B50748F8
:104FF00004F0E4FA012210214FF0904005F0C1FACC
:105000004FF0904310221A8308BD00BFCC1E002031
:1050100008B5114B2DED028BB0EE408A83ED000AEE
:10502000FFF7E4FFB5EEC08AF1EE10FA10D938EEC2
:10503000088A9FED0A0A0A4B28EE008ABCEEC88A4D
:1050400083ED008ABDEC028BBDE80840FFF7B8BFD6
:10505000BDEC028B08BD00BFD811002000008043CA
:10506000080D002010B5084C0849204604F086FAC7
:105070002046022104F094FA032220214FF09040B0
:10508000BDE8104005F07DBAEC1E0020180D002090
:1050900008B5074804F092FA012220214FF0904011
:1050A00005F06FFA4FF0904320221A8308BD00BF2D
:1050B000EC1E002008B5114B2DED028BB0EE408A9E
:1050C00083ED000AFFF7E4FFB5EEC08AF1EE10FAB7
:1050D00010D938EE088A9FED0A0A0A4B28EE008A9A
:1050E000BCEEC88A83ED008ABDEC028BBDE80840A7
:1050F000FFF7B8BFBDEC028B08BD00BFDC1100207C
:1051000000008043180D002008B5FFF773FE58B16A
:105110000020FFF779FCFFF77BFF0020FFF774FC0E
:10512000BDE80840FFF7C6BF08BD000038B5184D00
:10513000184C032210214FF0904005F022FA164936
:10514000284604F0AAF91549154804F017FA032275
:1051500020214FF0904005F014FA1249204604F047
:105160009CF91149114804F009FAAB6A10491A6810
:105170001048136823F002031360A36A1A681368C7
:1051800023F400331360BDE8384004F0F7B900BFE2
:10519000381E0020681E00202CBB0008080D0020CF
:1051A000CC1E002034BB0008180D0020EC1E00208F
:1051B000280D0020DC1E002010B50F4C0F4804F015
:1051C000FDF9204604F088F940F2FF7200212046E4
:1051D0000B4C04F070F90B4804F0F0F9204604F091
:1051E0007BF9204640F2FF72002104F064F9064882
:1051F000BDE8104004F0E2B9381E0020CC1E0020AB
:10520000681E0020EC1E0020DC1E002008B50A4AA3
:105210000A490B484FF4807304F04FF94FF4807340
:1052200008490948094A04F048F902210848BDE83C
:10523000084004F0B5B900BF2CB700083CBB00081B
:10524000381E00204CBB0008681E00202CB9000846
:10525000DC1E0020014B00221A707047E211002072
:10526000014B00221A707047E2110020024B1B789C
:105270000BB9024A13707047E2110020E0110020C0
:10528000024B1B780BB1FFF789BB7047E711002079
:10529000FE288CBF00200120704708B5FFF7F8FFFB
:1052A00008BD000008B5FFF7EBFF044B04480022DF
:1052B0001A700821BDE80840FFF7E6BBE71100209F
:1052C0005C0E0020034B0448002208211A70FFF7EF
:1052D000DBBB00BFE6110020380D002010B5FFF742
:1052E000CFFF084A08481378013303F00303137013
:1052F000282404FB030000220521BDE81040FFF72D
:10530000C3BB00BFB80D0020BC0D0020F8B5174B83
:105310001B788BB1164C208840B902F0B7FC208076
:10532000144C154D227842B1531E08E002F0B3FC34
:10533000124B1B888342F0D3F8BD2B78013B104EF3
:10534000317849B10F49C85C8F5CFFF720FB337897
:1053500013B13846FFF714FB237829780133B3FBE8
:10536000F1F201FB12332370E6E700BFF9110020D0
:10537000FE110020FA110020F8110020E00E00209C
:10538000E7110020E81100207047000008B5054B28
:10539000054801221A7008210022FFF775FBFFF76C
:1053A000F3FF08BDE7110020A00E002070470000A9
:1053B00008B5054B054801221A7008210022FFF7A5
:1053C00063FBFFF7F3FF08BDE6110020780D002016
:1053D0002DE9F04147F2904398428AB0054606D144
:1053E0004B79002B3CD0FFF7D1FF002051E047F272
:1053F0009143984204D14B7993B3FFF753FFF4E7FD
:1054000047F29243984206D15E4B4A791B783AB3F1
:10541000002BF2D1E7E7B0F5E24F04D14B79FBB1B5
:10542000FFF7C6FFE1E747F20113984204D14B7939
:10543000B3B1FFF747FFD8E747F20213984206D10E
:105440004B796BB1504B1B78002BF2D1E8E747F258
:105450009343984204D14B7913B1FFF73FFFC4E760
:10546000484B1E7826B9484B1B78002B00F08780EC
:105470004F79002F3DD0E02D0ED1FFF701FF434BB8
:1054800001221A70424B00201870424B1870424B98
:1054900018700AB0BDE8F081E22D0BD1FFF7F0FEE5
:1054A0003A4B1A7812B13A4A012111700020187053
:1054B000384BEDE7E32D0FD1354B1B78CBB1FFF720
:1054C000DFFE324B00201870324B01221A70334B32
:1054D0001870334B1880DCE7522D04D1314A138801
:1054E0000A3B138081E7512D03D12E4A13880A33DA
:1054F000F7E74B780A782C49062000FB031313F8D2
:1055000002802A4B1C782A4B1B6824341C44294BEC
:105510001B78E4B2B3B94444E4B257B316B12046A1
:10552000FFF72EFA194B1B782BB11B4A224913782F
:10553000CC54013313702846FFF7AFFE80F0010012
:10554000C0B2A6E723221D4901A8FCF78FFD07235F
:10555000B8FBF3F303EB4302C3EBC30304EB820496
:10556000A8EB03030AAA52FA83F313F8243C1C4461
:10557000D2E7002EDFD02046FFF709FADBE7012053
:1055800087E700BFE7110020E6110020FC11002092
:10559000FB110020F9110020F8110020FA11002061
:1055A000FE110020E00E002040B40008E20E0020B2
:1055B0009C0E0020B80D0020E811002070B30008F8
:1055C000164B1B78D90707D5154B187840007F2854
:1055D00020D808B3C0B270479A0703D5104B18788B
:1055E0008000F4E75B0703D50D4B1878C000EEE7A9
:1055F0000C4B1B7863B10C4A094912780878934226
:10560000F4D210FB03F0C000B0FBF2F080B2DEE792
:105610000820DFE77F207047012070470A12002032
:10562000E50E00200B120020E60E0020154B1B7823
:10563000D90705D5144B1878800800B3C0B270475D
:105640009A0703D5104B18784008F6E75B0705D595
:105650000D4B18787F28F0D97F2070470B4B1B78B3
:105660005BB10B4A084912780878934236BF10FBA9
:1056700003F080B2B0FBF2F0ECE70120DEE701209E
:10568000704700BF0A120020E90E00200C12002013
:10569000EA0E0020CD2808B505D1FFF791FF404262
:1056A000294BD87008BDCE2802D1FFF789FFF7E754
:1056B000CF2805D1FFF784FF4042234B9870F1E7D4
:1056C000D02802D1FFF77CFFF7E7D92804D1FFF7F4
:1056D000ADFF1D4B1871E5E7DA2803D1FFF7A6FFF0
:1056E0004042F6E7DB2805D1FFF7A0FF4042164B0A
:1056F0005871D7E7DC2802D1FFF798FFF7E700F1F0
:105700002F03DBB2072B08D80F4A0123D13803FA45
:1057100000F0537818435070C4E7DD2805D10B4AD8
:10572000137843F001031370BCE7DE2804D1074A65
:10573000137843F00203F6E7DF28B3D1034A137866
:1057400043F00403EFE700BF041200200A12002018
:10575000364BCD2893F902200AD193F90310002982
:105760000CDA0021D97052B9314A0021117006E0DB
:10577000CE280DD193F903100029F2DC72B11A7909
:105780005B7913435BB2002B4FD12A4A13707047E9
:10579000CF2806D1002AF1DA00229A7093F903206B
:1057A000E1E7D02802D1002AF6DCE7E7D92893F90F
:1057B000041004D10029E1DD00211971DEE7DA28A7
:1057C00002D10029DADAF7E7DB2893F9051004D1D2
:1057D0000029D3DA00215971D0E7DC2802D1002951
:1057E000F8DCCBE700F12F01C9B2072907D8D1387F
:1057F00001218140587820EA01005870BEE7DD2879
:1058000005D10D48017821F001010170B6E7DE28CD
:1058100004D10948017821F00201F6E7DF28ADD173
:105820000548017821F00401EFE7704704120020D9
:105830000B1200200C1200200A1200202A4B1B78A9
:1058400013F0080F10B5294C39D02948FFF728F874
:1058500061782848FFF724F82748FFF721F894F9E2
:1058600002102648FFF71CF82548FFF719F894F9AD
:1058700003102248FFF714F82148FFF711F894F9B4
:1058800004101E48FFF70CF81D48FFF709F894F9BB
:1058900005101A48FFF704F81A48FFF701F81A4BE9
:1058A0001A481978FEF7FCFF1948FEF7F9FF194B63
:1058B00016481978FEF7F4FF1748FEF7F1FF02F0DB
:1058C000E5F9E378A278134318BF144B227918BF87
:1058D00018806379134318BF114BBDE8104018BFFF
:1058E0001880024801F0A4BFC61100200412002055
:1058F0005CBB00087EB600087FBB000881BB0008C7
:1059000054C3000884BB00080B12002087BB0008AA
:105910008ABB00080A1200208CBB0008001200207D
:105920000212002008B5062200210548FCF738FCC9
:10593000044A00231370044A1370044A137008BD0C
:10594000041200200B1200200C1200200A1200206A
:1059500090F902305BB990F9033043B990F9043003
:105960002BB990F90500003018BF012070470120C5
:105970007047000037B5574C062221466846FCF7B1
:1059800075FB0023A370E370237163719DF80220FF
:105990009DF8033013430AD04F4B188802F07BF96F
:1059A0004E4A13783BB34E49097888422DDC9DF866
:1059B00004209DF8053013430BD04A4B188802F0A1
:1059C0006AF9494A1378002B4CD048490978884233
:1059D00052DC69463F4802F053F818B93D48FFF7DA
:1059E000B7FF08B1FFF72AFF062269463948FCF7DE
:1059F0003DFB03B030BD3E49097801EB8101B0EBBE
:105A0000410FD4DD0133137001E0FF2BFAD19DF972
:105A100002503DB1FFF7D4FD002DCCBF0123FF2381
:105A20005843A0709DF903503DB1FFF7C9FD002D0B
:105A3000CCBF0123FF235843E07094F90220002AD1
:105A4000B5D094F903100029B1D0B5235A431212EE
:105A500003FB01F308BF01221B1208BF0123A27040
:105A6000E370A4E72349097801EB8101B0EB410F12
:105A7000AFDD0133137001E0FF2BFAD19DF9045023
:105A80003DB1FFF7D3FD002DCCBF0123FF235843C9
:105A900020719DF905503DB1FFF7C8FD002DCCBF29
:105AA0000123FF235843607194F90420002A90D009
:105AB00094F9051000298CD0B5235A43121203FB28
:105AC00001F308BF01221B1208BF01232271637179
:105AD0007FE700BF04120020001200200B120020FC
